{
  "_format": "hh-sol-artifact-1",
  "contractName": "PIOLock",
  "sourceName": "contracts/PIOLock.sol",
  "abi": [
    {
      "inputs": [
        {
          "internalType": "address",
          "name": "pioTokenAddress",
          "type": "address"
        },
        {
          "internalType": "address[]",
          "name": "validators",
          "type": "address[]"
        }
      ],
      "stateMutability": "nonpayable",
      "type": "constructor"
    },
    {
      "anonymous": false,
      "inputs": [
        {
          "indexed": true,
          "internalType": "bytes32",
          "name": "lockId",
          "type": "bytes32"
        },
        {
          "indexed": true,
          "internalType": "address",
          "name": "validator",
          "type": "address"
        },
        {
          "indexed": false,
          "internalType": "uint256",
          "name": "approvals",
          "type": "uint256"
        }
      ],
      "name": "Approved",
      "type": "event"
    },
    {
      "anonymous": false,
      "inputs": [
        {
          "indexed": true,
          "internalType": "bytes32",
          "name": "lockId",
          "type": "bytes32"
        }
      ],
      "name": "Finalized",
      "type": "event"
    },
    {
      "anonymous": false,
      "inputs": [
        {
          "indexed": true,
          "internalType": "bytes32",
          "name": "lockId",
          "type": "bytes32"
        },
        {
          "indexed": true,
          "internalType": "address",
          "name": "sender",
          "type": "address"
        },
        {
          "indexed": true,
          "internalType": "address",
          "name": "destination",
          "type": "address"
        },
        {
          "indexed": false,
          "internalType": "uint256",
          "name": "amount",
          "type": "uint256"
        },
        {
          "indexed": false,
          "internalType": "uint256",
          "name": "destChainId",
          "type": "uint256"
        },
        {
          "indexed": false,
          "internalType": "uint256",
          "name": "timestamp",
          "type": "uint256"
        }
      ],
      "name": "Locked",
      "type": "event"
    },
    {
      "anonymous": false,
      "inputs": [
        {
          "indexed": true,
          "internalType": "bytes32",
          "name": "lockId",
          "type": "bytes32"
        },
        {
          "indexed": true,
          "internalType": "address",
          "name": "to",
          "type": "address"
        },
        {
          "indexed": false,
          "internalType": "uint256",
          "name": "amount",
          "type": "uint256"
        }
      ],
      "name": "Refunded",
      "type": "event"
    },
    {
      "inputs": [],
      "name": "DEST_CHAIN_ID",
      "outputs": [
        {
          "internalType": "uint256",
          "name": "",
          "type": "uint256"
        }
      ],
      "stateMutability": "view",
      "type": "function"
    },
    {
      "inputs": [],
      "name": "TIMELOCK_SECONDS",
      "outputs": [
        {
          "internalType": "uint256",
          "name": "",
          "type": "uint256"
        }
      ],
      "stateMutability": "view",
      "type": "function"
    },
    {
      "inputs": [],
      "name": "VALIDATOR_THRESHOLD",
      "outputs": [
        {
          "internalType": "uint256",
          "name": "",
          "type": "uint256"
        }
      ],
      "stateMutability": "view",
      "type": "function"
    },
    {
      "inputs": [
        {
          "internalType": "bytes32",
          "name": "",
          "type": "bytes32"
        },
        {
          "internalType": "address",
          "name": "",
          "type": "address"
        }
      ],
      "name": "approvals",
      "outputs": [
        {
          "internalType": "bool",
          "name": "",
          "type": "bool"
        }
      ],
      "stateMutability": "view",
      "type": "function"
    },
    {
      "inputs": [
        {
          "internalType": "bytes32",
          "name": "lockId",
          "type": "bytes32"
        }
      ],
      "name": "approveLock",
      "outputs": [],
      "stateMutability": "nonpayable",
      "type": "function"
    },
    {
      "inputs": [],
      "name": "getValidators",
      "outputs": [
        {
          "internalType": "address[]",
          "name": "",
          "type": "address[]"
        }
      ],
      "stateMutability": "view",
      "type": "function"
    },
    {
      "inputs": [
        {
          "internalType": "address",
          "name": "account",
          "type": "address"
        }
      ],
      "name": "isValidator",
      "outputs": [
        {
          "internalType": "bool",
          "name": "",
          "type": "bool"
        }
      ],
      "stateMutability": "view",
      "type": "function"
    },
    {
      "inputs": [
        {
          "internalType": "uint256",
          "name": "amount",
          "type": "uint256"
        },
        {
          "internalType": "address",
          "name": "destination",
          "type": "address"
        }
      ],
      "name": "lock",
      "outputs": [
        {
          "internalType": "bytes32",
          "name": "lockId",
          "type": "bytes32"
        }
      ],
      "stateMutability": "nonpayable",
      "type": "function"
    },
    {
      "inputs": [
        {
          "internalType": "bytes32",
          "name": "",
          "type": "bytes32"
        }
      ],
      "name": "locks",
      "outputs": [
        {
          "internalType": "address",
          "name": "sender",
          "type": "address"
        },
        {
          "internalType": "address",
          "name": "destination",
          "type": "address"
        },
        {
          "internalType": "uint256",
          "name": "amount",
          "type": "uint256"
        },
        {
          "internalType": "uint256",
          "name": "srcChainId",
          "type": "uint256"
        },
        {
          "internalType": "uint256",
          "name": "destChainId",
          "type": "uint256"
        },
        {
          "internalType": "uint256",
          "name": "timestamp",
          "type": "uint256"
        },
        {
          "internalType": "uint256",
          "name": "timelockUntil",
          "type": "uint256"
        },
        {
          "internalType": "bool",
          "name": "finalized",
          "type": "bool"
        },
        {
          "internalType": "bool",
          "name": "refunded",
          "type": "bool"
        },
        {
          "internalType": "uint256",
          "name": "approvalCount",
          "type": "uint256"
        }
      ],
      "stateMutability": "view",
      "type": "function"
    },
    {
      "inputs": [],
      "name": "pioToken",
      "outputs": [
        {
          "internalType": "contract IERC20",
          "name": "",
          "type": "address"
        }
      ],
      "stateMutability": "view",
      "type": "function"
    },
    {
      "inputs": [
        {
          "internalType": "bytes32",
          "name": "lockId",
          "type": "bytes32"
        }
      ],
      "name": "rollback",
      "outputs": [],
      "stateMutability": "nonpayable",
      "type": "function"
    }
  ],
  "bytecode": "0x60a06040523480156200001157600080fd5b5060405162000f9238038062000f928339810160408190526200003491620002a3565b6001600160a01b038216620000855760405162461bcd60e51b8152602060048201526012602482015271141253c81d1bdad95b881c995c5d5a5c995960721b60448201526064015b60405180910390fd5b8051600514620000cc5760405162461bcd60e51b81526020600482015260116024820152706e65656420352076616c696461746f727360781b60448201526064016200007c565b6001600160a01b03821660805260005b8151811015620001f55760006001600160a01b03168282815181106200010657620001066200038c565b60200260200101516001600160a01b0316036200015a5760405162461bcd60e51b815260206004820152601160248201527034b73b30b634b2103b30b634b230ba37b960791b60448201526064016200007c565b60006200018e8383815181106200017557620001756200038c565b60200260200101516000620001fe60201b90919060201c565b905080620001df5760405162461bcd60e51b815260206004820152601360248201527f6475706c69636174652076616c696461746f720000000000000000000000000060448201526064016200007c565b5080620001ec81620003a2565b915050620000dc565b505050620003ca565b600062000215836001600160a01b0384166200021e565b90505b92915050565b6000818152600183016020526040812054620002675750815460018181018455600084815260208082209093018490558454848252828601909352604090209190915562000218565b50600062000218565b80516001600160a01b03811681146200028857600080fd5b919050565b634e487b7160e01b600052604160045260246000fd5b60008060408385031215620002b757600080fd5b620002c28362000270565b602084810151919350906001600160401b0380821115620002e257600080fd5b818601915086601f830112620002f757600080fd5b8151818111156200030c576200030c6200028d565b8060051b604051601f19603f830116810181811085821117156200033457620003346200028d565b6040529182528482019250838101850191898311156200035357600080fd5b938501935b828510156200037c576200036c8562000270565b8452938501939285019262000358565b8096505050505050509250929050565b634e487b7160e01b600052603260045260246000fd5b600060018201620003c357634e487b7160e01b600052601160045260246000fd5b5060010190565b608051610b9e620003f4600039600081816102320152818161051f01526108d10152610b9e6000f3fe608060405234801561001057600080fd5b50600436106100a95760003560e01c8063b7ab4db511610071578063b7ab4db514610139578063cfb139281461014e578063ed5e843714610161578063edc792a41461022d578063facd743b1461026c578063fd342df71461027f57600080fd5b80631eb6c947146100ae57806324f6c776146100cb5780635bd7a71a1461010957806366dfbfb41461011e5780637a6eea3714610131575b600080fd5b6100b86201518081565b6040519081526020015b60405180910390f35b6100f96100d9366004610a78565b600360209081526000928352604080842090915290825290205460ff1681565b60405190151581526020016100c2565b61011c610117366004610aa4565b610287565b005b6100b861012c366004610a78565b61047b565b6100b8600381565b610141610727565b6040516100c29190610abd565b61011c61015c366004610aa4565b610738565b6101d461016f366004610aa4565b60026020819052600091825260409091208054600182015492820154600383015460048401546005850154600686015460078701546008909701546001600160a01b0396871698909616969495939492939192909160ff80831692610100900416908a565b604080516001600160a01b039b8c1681529a90991660208b0152978901969096526060880194909452608087019290925260a086015260c0850152151560e08401521515610100830152610120820152610140016100c2565b6102547f000000000000000000000000000000000000000000000000000000000000000081565b6040516001600160a01b0390911681526020016100c2565b6100f961027a366004610b0a565b6109ca565b6100b8600581565b610290336109ca565b6102d15760405162461bcd60e51b815260206004820152600d60248201526c3737ba103b30b634b230ba37b960991b60448201526064015b60405180910390fd5b6000818152600260205260408120600581015490910361031d5760405162461bcd60e51b81526020600482015260076024820152663ab735b737bbb760c91b60448201526064016102c8565b600781015460ff161561035e5760405162461bcd60e51b8152602060048201526009602482015268199a5b985b1a5e995960ba1b60448201526064016102c8565b600082815260036020908152604080832033845290915290205460ff16156103b35760405162461bcd60e51b8152602060048201526008602482015267185c1c1c9bdd995960c21b60448201526064016102c8565b60008281526003602090815260408083203384529091528120805460ff19166001908117909155600883018054919290916103ef908490610b25565b90915550506008810154604051908152339083907f20f38d8bfe412e6f42eeb96bfc20c76b535e2e3d9ff81c730fdf46117b4e3c439060200160405180910390a360038160080154106104775760078101805460ff1916600117905560405182907fd5eaff5f7e00ea5a32e32c0121393190de285e9424ce5485cd0b0a51d6b77d6290600090a25b5050565b60008083116104b95760405162461bcd60e51b815260206004820152600a6024820152690616d6f756e74203d20360b41b60448201526064016102c8565b6001600160a01b0382166104fa5760405162461bcd60e51b81526020600482015260086024820152671898590819195cdd60c21b60448201526064016102c8565b6040516323b872dd60e01b8152336004820152306024820152604481018490526000907f00000000000000000000000000000000000000000000000000000000000000006001600160a01b0316906323b872dd906064016020604051808303816000875af1158015610570573d6000803e3d6000fd5b505050506040513d601f19601f820116820180604052508101906105949190610b46565b9050806105d55760405162461bcd60e51b815260206004820152600f60248201526e1d1c985b9cd9995c8819985a5b1959608a1b60448201526064016102c8565b6040516bffffffffffffffffffffffff1933606090811b8216602084015285901b166034820152604881018590526005606882015242608882018190529060a80160408051601f198184030181529181528151602092830120600081815260029093529120600581015491945090156106795760405162461bcd60e51b815260206004820152600660248201526565786973747360d01b60448201526064016102c8565b8054336001600160a01b03199182161782556001820180549091166001600160a01b0387161790556002810186905546600382015560056004820181905581018290556106c96201518083610b25565b600682015560408051878152600560208201529081018390526001600160a01b03861690339086907f9aa2cfac42110eb2439f22c26116856ea58933971042a9e2a05644a2f13cbd389060600160405180910390a450505092915050565b606061073360006109ec565b905090565b600081815260026020526040812060058101549091036107845760405162461bcd60e51b81526020600482015260076024820152663ab735b737bbb760c91b60448201526064016102c8565b600781015460ff16156107c55760405162461bcd60e51b8152602060048201526009602482015268199a5b985b1a5e995960ba1b60448201526064016102c8565b6007810154610100900460ff161561080a5760405162461bcd60e51b81526020600482015260086024820152671c99599d5b99195960c21b60448201526064016102c8565b80546001600160a01b031633146108505760405162461bcd60e51b815260206004820152600a6024820152693737ba1039b2b73232b960b11b60448201526064016102c8565b806006015442101561088f5760405162461bcd60e51b815260206004820152600860248201526774696d656c6f636b60c01b60448201526064016102c8565b60078101805461ff0019166101001790558054600282015460405163a9059cbb60e01b81526001600160a01b03928316600482015260248101919091526000917f0000000000000000000000000000000000000000000000000000000000000000169063a9059cbb906044016020604051808303816000875af115801561091a573d6000803e3d6000fd5b505050506040513d601f19601f8201168201806040525081019061093e9190610b46565b90508061097d5760405162461bcd60e51b815260206004820152600d60248201526c1c99599d5b990819985a5b1959609a1b60448201526064016102c8565b815460028301546040519081526001600160a01b039091169084907ff552ca82e113ac3c539c3d617f29fcd19c172a0c75dad017555c9e109f7fe1839060200160405180910390a3505050565b6001600160a01b03811660009081526001602052604081205415155b92915050565b606060006109f983610a00565b9392505050565b606081600001805480602002602001604051908101604052809291908181526020018280548015610a5057602002820191906000526020600020905b815481526020019060010190808311610a3c575b50505050509050919050565b80356001600160a01b0381168114610a7357600080fd5b919050565b60008060408385031215610a8b57600080fd5b82359150610a9b60208401610a5c565b90509250929050565b600060208284031215610ab657600080fd5b5035919050565b6020808252825182820181905260009190848201906040850190845b81811015610afe5783516001600160a01b031683529284019291840191600101610ad9565b50909695505050505050565b600060208284031215610b1c57600080fd5b6109f982610a5c565b808201808211156109e657634e487b7160e01b600052601160045260246000fd5b600060208284031215610b5857600080fd5b815180151581146109f957600080fdfea2646970667358221220cf4dfd48018986ce3f66494176fff93848ecc8404bce4a26943532456598e4ee64736f6c63430008140033",
  "linkReferences": {},
  "deployedLinkReferences": {}
}