{
  "_format": "hh-sol-artifact-1",
  "contractName": "PIOLock",
  "sourceName": "contracts/PIOLock.sol",
  "abi": [
    {
      "inputs": [
        {
          "internalType": "address",
          "name": "pioTokenAddress",
          "type": "address"
        },
        {
          "internalType": "address[]",
          "name": "validators",
          "type": "address[]"
        }
      ],
      "stateMutability": "nonpayable",
      "type": "constructor"
    },
    {
      "anonymous": false,
      "inputs": [
        {
          "indexed": true,
          "internalType": "bytes32",
          "name": "lockId",
          "type": "bytes32"
        },
        {
          "indexed": true,
          "internalType": "address",
          "name": "validator",
          "type": "address"
        },
        {
          "indexed": false,
          "internalType": "uint256",
          "name": "approvals",
          "type": "uint256"
        }
      ],
      "name": "Approved",
      "type": "event"
    },
    {
      "anonymous": false,
      "inputs": [
        {
          "indexed": true,
          "internalType": "bytes32",
          "name": "lockId",
          "type": "bytes32"
        }
      ],
      "name": "Finalized",
      "type": "event"
    },
    {
      "anonymous": false,
      "inputs": [
        {
          "indexed": true,
          "internalType": "bytes32",
          "name": "lockId",
          "type": "bytes32"
        },
        {
          "indexed": true,
          "internalType": "address",
          "name": "sender",
          "type": "address"
        },
        {
          "indexed": true,
          "internalType": "address",
          "name": "destination",
          "type": "address"
        },
        {
          "indexed": false,
          "internalType": "uint256",
          "name": "amount",
          "type": "uint256"
        },
        {
          "indexed": false,
          "internalType": "uint256",
          "name": "destChainId",
          "type": "uint256"
        },
        {
          "indexed": false,
          "internalType": "uint256",
          "name": "timestamp",
          "type": "uint256"
        }
      ],
      "name": "Locked",
      "type": "event"
    },
    {
      "anonymous": false,
      "inputs": [
        {
          "indexed": true,
          "internalType": "address",
          "name": "previousOwner",
          "type": "address"
        },
        {
          "indexed": true,
          "internalType": "address",
          "name": "newOwner",
          "type": "address"
        }
      ],
      "name": "OwnershipTransferred",
      "type": "event"
    },
    {
      "anonymous": false,
      "inputs": [
        {
          "indexed": false,
          "internalType": "address",
          "name": "account",
          "type": "address"
        }
      ],
      "name": "Paused",
      "type": "event"
    },
    {
      "anonymous": false,
      "inputs": [
        {
          "indexed": true,
          "internalType": "bytes32",
          "name": "lockId",
          "type": "bytes32"
        },
        {
          "indexed": true,
          "internalType": "address",
          "name": "to",
          "type": "address"
        },
        {
          "indexed": false,
          "internalType": "uint256",
          "name": "amount",
          "type": "uint256"
        }
      ],
      "name": "Refunded",
      "type": "event"
    },
    {
      "anonymous": false,
      "inputs": [
        {
          "indexed": false,
          "internalType": "address",
          "name": "account",
          "type": "address"
        }
      ],
      "name": "Unpaused",
      "type": "event"
    },
    {
      "inputs": [],
      "name": "DEST_CHAIN_ID",
      "outputs": [
        {
          "internalType": "uint256",
          "name": "",
          "type": "uint256"
        }
      ],
      "stateMutability": "view",
      "type": "function"
    },
    {
      "inputs": [],
      "name": "TIMELOCK_SECONDS",
      "outputs": [
        {
          "internalType": "uint256",
          "name": "",
          "type": "uint256"
        }
      ],
      "stateMutability": "view",
      "type": "function"
    },
    {
      "inputs": [],
      "name": "VALIDATOR_THRESHOLD",
      "outputs": [
        {
          "internalType": "uint256",
          "name": "",
          "type": "uint256"
        }
      ],
      "stateMutability": "view",
      "type": "function"
    },
    {
      "inputs": [
        {
          "internalType": "address",
          "name": "validator",
          "type": "address"
        }
      ],
      "name": "addValidator",
      "outputs": [],
      "stateMutability": "nonpayable",
      "type": "function"
    },
    {
      "inputs": [
        {
          "internalType": "bytes32",
          "name": "",
          "type": "bytes32"
        },
        {
          "internalType": "address",
          "name": "",
          "type": "address"
        }
      ],
      "name": "approvals",
      "outputs": [
        {
          "internalType": "bool",
          "name": "",
          "type": "bool"
        }
      ],
      "stateMutability": "view",
      "type": "function"
    },
    {
      "inputs": [
        {
          "internalType": "bytes32",
          "name": "lockId",
          "type": "bytes32"
        }
      ],
      "name": "approveLock",
      "outputs": [],
      "stateMutability": "nonpayable",
      "type": "function"
    },
    {
      "inputs": [
        {
          "internalType": "address",
          "name": "token",
          "type": "address"
        },
        {
          "internalType": "uint256",
          "name": "amount",
          "type": "uint256"
        }
      ],
      "name": "emergencyWithdraw",
      "outputs": [],
      "stateMutability": "nonpayable",
      "type": "function"
    },
    {
      "inputs": [],
      "name": "getValidators",
      "outputs": [
        {
          "internalType": "address[]",
          "name": "",
          "type": "address[]"
        }
      ],
      "stateMutability": "view",
      "type": "function"
    },
    {
      "inputs": [
        {
          "internalType": "address",
          "name": "account",
          "type": "address"
        }
      ],
      "name": "isValidator",
      "outputs": [
        {
          "internalType": "bool",
          "name": "",
          "type": "bool"
        }
      ],
      "stateMutability": "view",
      "type": "function"
    },
    {
      "inputs": [
        {
          "internalType": "uint256",
          "name": "amount",
          "type": "uint256"
        },
        {
          "internalType": "address",
          "name": "destination",
          "type": "address"
        }
      ],
      "name": "lock",
      "outputs": [
        {
          "internalType": "bytes32",
          "name": "lockId",
          "type": "bytes32"
        }
      ],
      "stateMutability": "nonpayable",
      "type": "function"
    },
    {
      "inputs": [
        {
          "internalType": "bytes32",
          "name": "",
          "type": "bytes32"
        }
      ],
      "name": "locks",
      "outputs": [
        {
          "internalType": "address",
          "name": "sender",
          "type": "address"
        },
        {
          "internalType": "address",
          "name": "destination",
          "type": "address"
        },
        {
          "internalType": "uint256",
          "name": "amount",
          "type": "uint256"
        },
        {
          "internalType": "uint256",
          "name": "srcChainId",
          "type": "uint256"
        },
        {
          "internalType": "uint256",
          "name": "destChainId",
          "type": "uint256"
        },
        {
          "internalType": "uint256",
          "name": "timestamp",
          "type": "uint256"
        },
        {
          "internalType": "uint256",
          "name": "timelockUntil",
          "type": "uint256"
        },
        {
          "internalType": "bool",
          "name": "finalized",
          "type": "bool"
        },
        {
          "internalType": "bool",
          "name": "refunded",
          "type": "bool"
        },
        {
          "internalType": "uint256",
          "name": "approvalCount",
          "type": "uint256"
        }
      ],
      "stateMutability": "view",
      "type": "function"
    },
    {
      "inputs": [],
      "name": "owner",
      "outputs": [
        {
          "internalType": "address",
          "name": "",
          "type": "address"
        }
      ],
      "stateMutability": "view",
      "type": "function"
    },
    {
      "inputs": [],
      "name": "pause",
      "outputs": [],
      "stateMutability": "nonpayable",
      "type": "function"
    },
    {
      "inputs": [],
      "name": "paused",
      "outputs": [
        {
          "internalType": "bool",
          "name": "",
          "type": "bool"
        }
      ],
      "stateMutability": "view",
      "type": "function"
    },
    {
      "inputs": [],
      "name": "pioToken",
      "outputs": [
        {
          "internalType": "contract IERC20",
          "name": "",
          "type": "address"
        }
      ],
      "stateMutability": "view",
      "type": "function"
    },
    {
      "inputs": [
        {
          "internalType": "address",
          "name": "validator",
          "type": "address"
        }
      ],
      "name": "removeValidator",
      "outputs": [],
      "stateMutability": "nonpayable",
      "type": "function"
    },
    {
      "inputs": [],
      "name": "renounceOwnership",
      "outputs": [],
      "stateMutability": "nonpayable",
      "type": "function"
    },
    {
      "inputs": [
        {
          "internalType": "bytes32",
          "name": "lockId",
          "type": "bytes32"
        }
      ],
      "name": "rollback",
      "outputs": [],
      "stateMutability": "nonpayable",
      "type": "function"
    },
    {
      "inputs": [
        {
          "internalType": "address",
          "name": "newOwner",
          "type": "address"
        }
      ],
      "name": "transferOwnership",
      "outputs": [],
      "stateMutability": "nonpayable",
      "type": "function"
    },
    {
      "inputs": [],
      "name": "unpause",
      "outputs": [],
      "stateMutability": "nonpayable",
      "type": "function"
    }
  ],
  "bytecode": "0x60a06040523480156200001157600080fd5b50604051620018ad380380620018ad833981016040819052620000349162000320565b6000805460ff19169055620000493362000222565b600180556001600160a01b0382166200009e5760405162461bcd60e51b8152602060048201526012602482015271141253c81d1bdad95b881c995c5d5a5c995960721b60448201526064015b60405180910390fd5b8051600514620000e55760405162461bcd60e51b81526020600482015260116024820152706e65656420352076616c696461746f727360781b604482015260640162000095565b6001600160a01b038216608052620000fd3362000222565b60005b8151811015620002195760006001600160a01b03168282815181106200012a576200012a62000409565b60200260200101516001600160a01b0316036200017e5760405162461bcd60e51b815260206004820152601160248201527034b73b30b634b2103b30b634b230ba37b960791b604482015260640162000095565b6000620001b283838151811062000199576200019962000409565b602002602001015160026200027b60201b90919060201c565b905080620002035760405162461bcd60e51b815260206004820152601360248201527f6475706c69636174652076616c696461746f7200000000000000000000000000604482015260640162000095565b508062000210816200041f565b91505062000100565b50505062000447565b600080546001600160a01b03838116610100818102610100600160a81b0319851617855560405193049190911692909183917f8be0079c531659141344cd1fd0a4f28419497f9722a3daafe3b4186f6b6457e091a35050565b600062000292836001600160a01b0384166200029b565b90505b92915050565b6000818152600183016020526040812054620002e45750815460018181018455600084815260208082209093018490558454848252828601909352604090209190915562000295565b50600062000295565b80516001600160a01b03811681146200030557600080fd5b919050565b634e487b7160e01b600052604160045260246000fd5b600080604083850312156200033457600080fd5b6200033f83620002ed565b602084810151919350906001600160401b03808211156200035f57600080fd5b818601915086601f8301126200037457600080fd5b8151818111156200038957620003896200030a565b8060051b604051601f19603f83011681018181108582111715620003b157620003b16200030a565b604052918252848201925083810185019189831115620003d057600080fd5b938501935b82851015620003f957620003e985620002ed565b84529385019392850192620003d5565b8096505050505050509250929050565b634e487b7160e01b600052603260045260246000fd5b6000600182016200044057634e487b7160e01b600052601160045260246000fd5b5060010190565b60805161143c620004716000396000818161033b015281816107ee0152610ccc015261143c6000f3fe608060405234801561001057600080fd5b506004361061012c5760003560e01c80638456cb59116100ad578063ed5e843711610071578063ed5e84371461026a578063edc792a414610336578063f2fde38b1461035d578063facd743b14610370578063fd342df71461038357600080fd5b80638456cb59146101fd5780638da5cb5b1461020557806395ccea671461022f578063b7ab4db514610242578063cfb139281461025757600080fd5b80635bd7a71a116100f45780635bd7a71a146101bc5780635c975abb146101cf57806366dfbfb4146101da578063715018a6146101ed5780637a6eea37146101f557600080fd5b80631eb6c9471461013157806324f6c7761461014e5780633f4ba83a1461018c57806340a141ff146101965780634d238c8e146101a9575b600080fd5b61013b6201518081565b6040519081526020015b60405180910390f35b61017c61015c3660046112a5565b600560209081526000928352604080842090915290825290205460ff1681565b6040519015158152602001610145565b61019461038d565b005b6101946101a43660046112d1565b61039f565b6101946101b73660046112d1565b61045b565b6101946101ca3660046112ec565b61054b565b60005460ff1661017c565b61013b6101e83660046112a5565b610739565b610194610a05565b61013b600381565b610194610a17565b60005461010090046001600160a01b03165b6040516001600160a01b039091168152602001610145565b61019461023d366004611305565b610a27565b61024a610b1a565b604051610145919061132f565b6101946102653660046112ec565b610b2b565b6102dd6102783660046112ec565b60046020819052600091825260409091208054600182015460028301546003840154948401546005850154600686015460078701546008909701546001600160a01b03968716989590961696939592939192909160ff8082169261010090920416908a565b604080516001600160a01b039b8c1681529a90991660208b0152978901969096526060880194909452608087019290925260a086015260c0850152151560e0840152151561010083015261012082015261014001610145565b6102177f000000000000000000000000000000000000000000000000000000000000000081565b61019461036b3660046112d1565b610dce565b61017c61037e3660046112d1565b610e44565b61013b62aa36a781565b610395610e51565b61039d610eb1565b565b6103a7610e51565b60036103b36002610f03565b116104055760405162461bcd60e51b815260206004820152601a60248201527f6e656564206174206c6561737420332076616c696461746f727300000000000060448201526064015b60405180910390fd5b6000610412600283610f0d565b9050806104575760405162461bcd60e51b81526020600482015260136024820152721d985b1a59185d1bdc881b9bdd08199bdd5b99606a1b60448201526064016103fc565b5050565b610463610e51565b6001600160a01b0381166104ad5760405162461bcd60e51b815260206004820152601160248201527034b73b30b634b2103b30b634b230ba37b960791b60448201526064016103fc565b600a6104b96002610f03565b106104fc5760405162461bcd60e51b8152602060048201526013602482015272746f6f206d616e792076616c696461746f727360681b60448201526064016103fc565b6000610509600283610f29565b9050806104575760405162461bcd60e51b815260206004820152601060248201526f76616c696461746f722065786973747360801b60448201526064016103fc565b61055433610e44565b6105905760405162461bcd60e51b815260206004820152600d60248201526c3737ba103b30b634b230ba37b960991b60448201526064016103fc565b600081815260046020526040812060058101549091036105dc5760405162461bcd60e51b81526020600482015260076024820152663ab735b737bbb760c91b60448201526064016103fc565b600781015460ff161561061d5760405162461bcd60e51b8152602060048201526009602482015268199a5b985b1a5e995960ba1b60448201526064016103fc565b600082815260056020908152604080832033845290915290205460ff16156106725760405162461bcd60e51b8152602060048201526008602482015267185c1c1c9bdd995960c21b60448201526064016103fc565b60008281526005602090815260408083203384529091528120805460ff19166001908117909155600883018054919290916106ae908490611392565b90915550506008810154604051908152339083907f20f38d8bfe412e6f42eeb96bfc20c76b535e2e3d9ff81c730fdf46117b4e3c439060200160405180910390a360038160080154106104575760078101805460ff1916600117905560405182907fd5eaff5f7e00ea5a32e32c0121393190de285e9424ce5485cd0b0a51d6b77d6290600090a25050565b6000610743610f3e565b61074b610f84565b600083116107885760405162461bcd60e51b815260206004820152600a6024820152690616d6f756e74203d20360b41b60448201526064016103fc565b6001600160a01b0382166107c95760405162461bcd60e51b81526020600482015260086024820152671898590819195cdd60c21b60448201526064016103fc565b6040516323b872dd60e01b8152336004820152306024820152604481018490526000907f00000000000000000000000000000000000000000000000000000000000000006001600160a01b0316906323b872dd906064016020604051808303816000875af115801561083f573d6000803e3d6000fd5b505050506040513d601f19601f8201168201806040525081019061086391906113a5565b9050806108a45760405162461bcd60e51b815260206004820152600f60248201526e1d1c985b9cd9995c8819985a5b1959608a1b60448201526064016103fc565b6040516bffffffffffffffffffffffff1933606090811b8216602084015285901b1660348201526048810185905262aa36a7606882015242608882018190529060a80160408051601f1981840301815291815281516020928301206000818152600490935291206005810154919450901561094a5760405162461bcd60e51b815260206004820152600660248201526565786973747360d01b60448201526064016103fc565b8054336001600160a01b03199182161782556001820180549091166001600160a01b0387161790556002810186905546600382015562aa36a760048201556005810182905561099c6201518083611392565b60068201556040805187815262aa36a760208201529081018390526001600160a01b03861690339086907f9aa2cfac42110eb2439f22c26116856ea58933971042a9e2a05644a2f13cbd389060600160405180910390a45050506109ff60018055565b92915050565b610a0d610e51565b61039d6000610fdd565b610a1f610e51565b61039d611036565b610a2f610e51565b610a37611073565b6001600160a01b038216610a7d5760405162461bcd60e51b815260206004820152600d60248201526c34b73b30b634b2103a37b5b2b760991b60448201526064016103fc565b816001600160a01b031663a9059cbb610aa46000546001600160a01b036101009091041690565b6040516001600160e01b031960e084901b1681526001600160a01b039091166004820152602481018490526044016020604051808303816000875af1158015610af1573d6000803e3d6000fd5b505050506040513d601f19601f82011682018060405250810190610b1591906113a5565b505050565b6060610b2660026110bc565b905090565b610b33610f84565b60008181526004602052604081206005810154909103610b7f5760405162461bcd60e51b81526020600482015260076024820152663ab735b737bbb760c91b60448201526064016103fc565b600781015460ff1615610bc05760405162461bcd60e51b8152602060048201526009602482015268199a5b985b1a5e995960ba1b60448201526064016103fc565b6007810154610100900460ff1615610c055760405162461bcd60e51b81526020600482015260086024820152671c99599d5b99195960c21b60448201526064016103fc565b80546001600160a01b03163314610c4b5760405162461bcd60e51b815260206004820152600a6024820152693737ba1039b2b73232b960b11b60448201526064016103fc565b8060060154421015610c8a5760405162461bcd60e51b815260206004820152600860248201526774696d656c6f636b60c01b60448201526064016103fc565b60078101805461ff0019166101001790558054600282015460405163a9059cbb60e01b81526001600160a01b03928316600482015260248101919091526000917f0000000000000000000000000000000000000000000000000000000000000000169063a9059cbb906044016020604051808303816000875af1158015610d15573d6000803e3d6000fd5b505050506040513d601f19601f82011682018060405250810190610d3991906113a5565b905080610d785760405162461bcd60e51b815260206004820152600d60248201526c1c99599d5b990819985a5b1959609a1b60448201526064016103fc565b815460028301546040519081526001600160a01b039091169084907ff552ca82e113ac3c539c3d617f29fcd19c172a0c75dad017555c9e109f7fe1839060200160405180910390a35050610dcb60018055565b50565b610dd6610e51565b6001600160a01b038116610e3b5760405162461bcd60e51b815260206004820152602660248201527f4f776e61626c653a206e6577206f776e657220697320746865207a65726f206160448201526564647265737360d01b60648201526084016103fc565b610dcb81610fdd565b60006109ff6002836110c9565b6000546001600160a01b0361010090910416331461039d5760405162461bcd60e51b815260206004820181905260248201527f4f776e61626c653a2063616c6c6572206973206e6f7420746865206f776e657260448201526064016103fc565b610eb9611073565b6000805460ff191690557f5db9ee0a495bf2e6ff9c91a7834c1ba4fdd244a5e8aa4e537bd38aeae4b073aa335b6040516001600160a01b03909116815260200160405180910390a1565b60006109ff825490565b6000610f22836001600160a01b0384166110eb565b9392505050565b6000610f22836001600160a01b0384166111de565b60005460ff161561039d5760405162461bcd60e51b815260206004820152601060248201526f14185d5cd8589b194e881c185d5cd95960821b60448201526064016103fc565b600260015403610fd65760405162461bcd60e51b815260206004820152601f60248201527f5265656e7472616e637947756172643a207265656e7472616e742063616c6c0060448201526064016103fc565b6002600155565b600080546001600160a01b03838116610100818102610100600160a81b0319851617855560405193049190911692909183917f8be0079c531659141344cd1fd0a4f28419497f9722a3daafe3b4186f6b6457e091a35050565b61103e610f3e565b6000805460ff191660011790557f62e78cea01bee320cd4e420270b5ea74000d11b0c9f74754ebdbfc544b05a258610ee63390565b60005460ff1661039d5760405162461bcd60e51b815260206004820152601460248201527314185d5cd8589b194e881b9bdd081c185d5cd95960621b60448201526064016103fc565b60606000610f228361122d565b6001600160a01b03811660009081526001830160205260408120541515610f22565b600081815260018301602052604081205480156111d457600061110f6001836113c7565b8554909150600090611123906001906113c7565b9050818114611188576000866000018281548110611143576111436113da565b9060005260206000200154905080876000018481548110611166576111666113da565b6000918252602080832090910192909255918252600188019052604090208390555b8554869080611199576111996113f0565b6001900381819060005260206000200160009055905585600101600086815260200190815260200160002060009055600193505050506109ff565b60009150506109ff565b6000818152600183016020526040812054611225575081546001818101845560008481526020808220909301849055845484825282860190935260409020919091556109ff565b5060006109ff565b60608160000180548060200260200160405190810160405280929190818152602001828054801561127d57602002820191906000526020600020905b815481526020019060010190808311611269575b50505050509050919050565b80356001600160a01b03811681146112a057600080fd5b919050565b600080604083850312156112b857600080fd5b823591506112c860208401611289565b90509250929050565b6000602082840312156112e357600080fd5b610f2282611289565b6000602082840312156112fe57600080fd5b5035919050565b6000806040838503121561131857600080fd5b61132183611289565b946020939093013593505050565b6020808252825182820181905260009190848201906040850190845b818110156113705783516001600160a01b03168352928401929184019160010161134b565b50909695505050505050565b634e487b7160e01b600052601160045260246000fd5b808201808211156109ff576109ff61137c565b6000602082840312156113b757600080fd5b81518015158114610f2257600080fd5b818103818111156109ff576109ff61137c565b634e487b7160e01b600052603260045260246000fd5b634e487b7160e01b600052603160045260246000fdfea2646970667358221220975225a7406678fd726b42f2547cadccd3f36236391bef69bd2e000555a6a54c64736f6c63430008140033",
  "linkReferences": {},
  "deployedLinkReferences": {}
}