{
  "_format": "hh-sol-artifact-1",
  "contractName": "PIOMint",
  "sourceName": "contracts/PIOMint.sol",
  "abi": [
    {
      "inputs": [
        {
          "internalType": "address[]",
          "name": "validators",
          "type": "address[]"
        }
      ],
      "stateMutability": "nonpayable",
      "type": "constructor"
    },
    {
      "anonymous": false,
      "inputs": [
        {
          "indexed": true,
          "internalType": "address",
          "name": "owner",
          "type": "address"
        },
        {
          "indexed": true,
          "internalType": "address",
          "name": "spender",
          "type": "address"
        },
        {
          "indexed": false,
          "internalType": "uint256",
          "name": "value",
          "type": "uint256"
        }
      ],
      "name": "Approval",
      "type": "event"
    },
    {
      "anonymous": false,
      "inputs": [
        {
          "indexed": true,
          "internalType": "bytes32",
          "name": "lockId",
          "type": "bytes32"
        },
        {
          "indexed": true,
          "internalType": "address",
          "name": "validator",
          "type": "address"
        },
        {
          "indexed": false,
          "internalType": "uint256",
          "name": "approvals",
          "type": "uint256"
        }
      ],
      "name": "MintApproved",
      "type": "event"
    },
    {
      "anonymous": false,
      "inputs": [
        {
          "indexed": true,
          "internalType": "bytes32",
          "name": "lockId",
          "type": "bytes32"
        },
        {
          "indexed": true,
          "internalType": "address",
          "name": "to",
          "type": "address"
        },
        {
          "indexed": false,
          "internalType": "uint256",
          "name": "amount",
          "type": "uint256"
        }
      ],
      "name": "MintRequested",
      "type": "event"
    },
    {
      "anonymous": false,
      "inputs": [
        {
          "indexed": true,
          "internalType": "bytes32",
          "name": "lockId",
          "type": "bytes32"
        },
        {
          "indexed": true,
          "internalType": "address",
          "name": "to",
          "type": "address"
        },
        {
          "indexed": false,
          "internalType": "uint256",
          "name": "amount",
          "type": "uint256"
        }
      ],
      "name": "Minted",
      "type": "event"
    },
    {
      "anonymous": false,
      "inputs": [
        {
          "indexed": true,
          "internalType": "address",
          "name": "previousOwner",
          "type": "address"
        },
        {
          "indexed": true,
          "internalType": "address",
          "name": "newOwner",
          "type": "address"
        }
      ],
      "name": "OwnershipTransferred",
      "type": "event"
    },
    {
      "anonymous": false,
      "inputs": [
        {
          "indexed": false,
          "internalType": "address",
          "name": "account",
          "type": "address"
        }
      ],
      "name": "Paused",
      "type": "event"
    },
    {
      "anonymous": false,
      "inputs": [
        {
          "indexed": true,
          "internalType": "bytes32",
          "name": "lockId",
          "type": "bytes32"
        },
        {
          "indexed": false,
          "internalType": "string",
          "name": "reason",
          "type": "string"
        }
      ],
      "name": "SecurityAlert",
      "type": "event"
    },
    {
      "anonymous": false,
      "inputs": [
        {
          "indexed": true,
          "internalType": "bytes32",
          "name": "lockId",
          "type": "bytes32"
        }
      ],
      "name": "TimelockExecuted",
      "type": "event"
    },
    {
      "anonymous": false,
      "inputs": [
        {
          "indexed": true,
          "internalType": "bytes32",
          "name": "lockId",
          "type": "bytes32"
        },
        {
          "indexed": false,
          "internalType": "uint256",
          "name": "timestamp",
          "type": "uint256"
        }
      ],
      "name": "TimelockSet",
      "type": "event"
    },
    {
      "anonymous": false,
      "inputs": [
        {
          "indexed": true,
          "internalType": "address",
          "name": "from",
          "type": "address"
        },
        {
          "indexed": true,
          "internalType": "address",
          "name": "to",
          "type": "address"
        },
        {
          "indexed": false,
          "internalType": "uint256",
          "name": "value",
          "type": "uint256"
        }
      ],
      "name": "Transfer",
      "type": "event"
    },
    {
      "anonymous": false,
      "inputs": [
        {
          "indexed": false,
          "internalType": "address",
          "name": "account",
          "type": "address"
        }
      ],
      "name": "Unpaused",
      "type": "event"
    },
    {
      "inputs": [],
      "name": "COOLDOWN_PERIOD",
      "outputs": [
        {
          "internalType": "uint256",
          "name": "",
          "type": "uint256"
        }
      ],
      "stateMutability": "view",
      "type": "function"
    },
    {
      "inputs": [],
      "name": "MAX_MINT_AMOUNT",
      "outputs": [
        {
          "internalType": "uint256",
          "name": "",
          "type": "uint256"
        }
      ],
      "stateMutability": "view",
      "type": "function"
    },
    {
      "inputs": [],
      "name": "TIMELOCK_DURATION",
      "outputs": [
        {
          "internalType": "uint256",
          "name": "",
          "type": "uint256"
        }
      ],
      "stateMutability": "view",
      "type": "function"
    },
    {
      "inputs": [],
      "name": "VALIDATOR_THRESHOLD",
      "outputs": [
        {
          "internalType": "uint256",
          "name": "",
          "type": "uint256"
        }
      ],
      "stateMutability": "view",
      "type": "function"
    },
    {
      "inputs": [
        {
          "internalType": "address",
          "name": "validator",
          "type": "address"
        }
      ],
      "name": "addValidator",
      "outputs": [],
      "stateMutability": "nonpayable",
      "type": "function"
    },
    {
      "inputs": [
        {
          "internalType": "address",
          "name": "owner",
          "type": "address"
        },
        {
          "internalType": "address",
          "name": "spender",
          "type": "address"
        }
      ],
      "name": "allowance",
      "outputs": [
        {
          "internalType": "uint256",
          "name": "",
          "type": "uint256"
        }
      ],
      "stateMutability": "view",
      "type": "function"
    },
    {
      "inputs": [
        {
          "internalType": "bytes32",
          "name": "",
          "type": "bytes32"
        }
      ],
      "name": "approvalCount",
      "outputs": [
        {
          "internalType": "uint256",
          "name": "",
          "type": "uint256"
        }
      ],
      "stateMutability": "view",
      "type": "function"
    },
    {
      "inputs": [
        {
          "internalType": "bytes32",
          "name": "",
          "type": "bytes32"
        },
        {
          "internalType": "address",
          "name": "",
          "type": "address"
        }
      ],
      "name": "approvals",
      "outputs": [
        {
          "internalType": "bool",
          "name": "",
          "type": "bool"
        }
      ],
      "stateMutability": "view",
      "type": "function"
    },
    {
      "inputs": [
        {
          "internalType": "address",
          "name": "spender",
          "type": "address"
        },
        {
          "internalType": "uint256",
          "name": "amount",
          "type": "uint256"
        }
      ],
      "name": "approve",
      "outputs": [
        {
          "internalType": "bool",
          "name": "",
          "type": "bool"
        }
      ],
      "stateMutability": "nonpayable",
      "type": "function"
    },
    {
      "inputs": [
        {
          "internalType": "bytes32",
          "name": "lockId",
          "type": "bytes32"
        },
        {
          "internalType": "address",
          "name": "to",
          "type": "address"
        },
        {
          "internalType": "uint256",
          "name": "amount",
          "type": "uint256"
        }
      ],
      "name": "approveMint",
      "outputs": [],
      "stateMutability": "nonpayable",
      "type": "function"
    },
    {
      "inputs": [
        {
          "internalType": "address",
          "name": "account",
          "type": "address"
        }
      ],
      "name": "balanceOf",
      "outputs": [
        {
          "internalType": "uint256",
          "name": "",
          "type": "uint256"
        }
      ],
      "stateMutability": "view",
      "type": "function"
    },
    {
      "inputs": [
        {
          "internalType": "address",
          "name": "from",
          "type": "address"
        },
        {
          "internalType": "uint256",
          "name": "amount",
          "type": "uint256"
        }
      ],
      "name": "burn",
      "outputs": [],
      "stateMutability": "nonpayable",
      "type": "function"
    },
    {
      "inputs": [],
      "name": "decimals",
      "outputs": [
        {
          "internalType": "uint8",
          "name": "",
          "type": "uint8"
        }
      ],
      "stateMutability": "view",
      "type": "function"
    },
    {
      "inputs": [
        {
          "internalType": "address",
          "name": "spender",
          "type": "address"
        },
        {
          "internalType": "uint256",
          "name": "subtractedValue",
          "type": "uint256"
        }
      ],
      "name": "decreaseAllowance",
      "outputs": [
        {
          "internalType": "bool",
          "name": "",
          "type": "bool"
        }
      ],
      "stateMutability": "nonpayable",
      "type": "function"
    },
    {
      "inputs": [
        {
          "internalType": "bytes32",
          "name": "lockId",
          "type": "bytes32"
        },
        {
          "internalType": "address",
          "name": "to",
          "type": "address"
        },
        {
          "internalType": "uint256",
          "name": "amount",
          "type": "uint256"
        }
      ],
      "name": "executeTimelockedMint",
      "outputs": [],
      "stateMutability": "nonpayable",
      "type": "function"
    },
    {
      "inputs": [],
      "name": "getValidators",
      "outputs": [
        {
          "internalType": "address[]",
          "name": "",
          "type": "address[]"
        }
      ],
      "stateMutability": "view",
      "type": "function"
    },
    {
      "inputs": [
        {
          "internalType": "address",
          "name": "spender",
          "type": "address"
        },
        {
          "internalType": "uint256",
          "name": "addedValue",
          "type": "uint256"
        }
      ],
      "name": "increaseAllowance",
      "outputs": [
        {
          "internalType": "bool",
          "name": "",
          "type": "bool"
        }
      ],
      "stateMutability": "nonpayable",
      "type": "function"
    },
    {
      "inputs": [
        {
          "internalType": "address",
          "name": "account",
          "type": "address"
        }
      ],
      "name": "isValidator",
      "outputs": [
        {
          "internalType": "bool",
          "name": "",
          "type": "bool"
        }
      ],
      "stateMutability": "view",
      "type": "function"
    },
    {
      "inputs": [],
      "name": "name",
      "outputs": [
        {
          "internalType": "string",
          "name": "",
          "type": "string"
        }
      ],
      "stateMutability": "view",
      "type": "function"
    },
    {
      "inputs": [],
      "name": "owner",
      "outputs": [
        {
          "internalType": "address",
          "name": "",
          "type": "address"
        }
      ],
      "stateMutability": "view",
      "type": "function"
    },
    {
      "inputs": [],
      "name": "pause",
      "outputs": [],
      "stateMutability": "nonpayable",
      "type": "function"
    },
    {
      "inputs": [],
      "name": "paused",
      "outputs": [
        {
          "internalType": "bool",
          "name": "",
          "type": "bool"
        }
      ],
      "stateMutability": "view",
      "type": "function"
    },
    {
      "inputs": [
        {
          "internalType": "bytes32",
          "name": "",
          "type": "bytes32"
        }
      ],
      "name": "processed",
      "outputs": [
        {
          "internalType": "bool",
          "name": "",
          "type": "bool"
        }
      ],
      "stateMutability": "view",
      "type": "function"
    },
    {
      "inputs": [
        {
          "internalType": "address",
          "name": "validator",
          "type": "address"
        }
      ],
      "name": "removeValidator",
      "outputs": [],
      "stateMutability": "nonpayable",
      "type": "function"
    },
    {
      "inputs": [],
      "name": "renounceOwnership",
      "outputs": [],
      "stateMutability": "nonpayable",
      "type": "function"
    },
    {
      "inputs": [
        {
          "internalType": "bytes32",
          "name": "lockId",
          "type": "bytes32"
        },
        {
          "internalType": "address",
          "name": "to",
          "type": "address"
        },
        {
          "internalType": "uint256",
          "name": "amount",
          "type": "uint256"
        }
      ],
      "name": "requestMint",
      "outputs": [],
      "stateMutability": "nonpayable",
      "type": "function"
    },
    {
      "inputs": [],
      "name": "symbol",
      "outputs": [
        {
          "internalType": "string",
          "name": "",
          "type": "string"
        }
      ],
      "stateMutability": "view",
      "type": "function"
    },
    {
      "inputs": [
        {
          "internalType": "bytes32",
          "name": "",
          "type": "bytes32"
        }
      ],
      "name": "timelockExecuted",
      "outputs": [
        {
          "internalType": "bool",
          "name": "",
          "type": "bool"
        }
      ],
      "stateMutability": "view",
      "type": "function"
    },
    {
      "inputs": [
        {
          "internalType": "bytes32",
          "name": "",
          "type": "bytes32"
        }
      ],
      "name": "timelocks",
      "outputs": [
        {
          "internalType": "uint256",
          "name": "",
          "type": "uint256"
        }
      ],
      "stateMutability": "view",
      "type": "function"
    },
    {
      "inputs": [],
      "name": "totalSupply",
      "outputs": [
        {
          "internalType": "uint256",
          "name": "",
          "type": "uint256"
        }
      ],
      "stateMutability": "view",
      "type": "function"
    },
    {
      "inputs": [
        {
          "internalType": "address",
          "name": "to",
          "type": "address"
        },
        {
          "internalType": "uint256",
          "name": "amount",
          "type": "uint256"
        }
      ],
      "name": "transfer",
      "outputs": [
        {
          "internalType": "bool",
          "name": "",
          "type": "bool"
        }
      ],
      "stateMutability": "nonpayable",
      "type": "function"
    },
    {
      "inputs": [
        {
          "internalType": "address",
          "name": "from",
          "type": "address"
        },
        {
          "internalType": "address",
          "name": "to",
          "type": "address"
        },
        {
          "internalType": "uint256",
          "name": "amount",
          "type": "uint256"
        }
      ],
      "name": "transferFrom",
      "outputs": [
        {
          "internalType": "bool",
          "name": "",
          "type": "bool"
        }
      ],
      "stateMutability": "nonpayable",
      "type": "function"
    },
    {
      "inputs": [
        {
          "internalType": "address",
          "name": "newOwner",
          "type": "address"
        }
      ],
      "name": "transferOwnership",
      "outputs": [],
      "stateMutability": "nonpayable",
      "type": "function"
    },
    {
      "inputs": [],
      "name": "unpause",
      "outputs": [],
      "stateMutability": "nonpayable",
      "type": "function"
    },
    {
      "inputs": [
        {
          "internalType": "address",
          "name": "",
          "type": "address"
        }
      ],
      "name": "validatorLastApproval",
      "outputs": [
        {
          "internalType": "uint256",
          "name": "",
          "type": "uint256"
        }
      ],
      "stateMutability": "view",
      "type": "function"
    }
  ],
  "bytecode": "0x60806040523480156200001157600080fd5b506040516200239c3803806200239c83398101604081905262000034916200032b565b6040518060400160405280600b81526020016a577261707065642050494f60a81b815250604051806040016040528060048152602001637750494f60e01b81525081600390816200008691906200048c565b5060046200009582826200048c565b50506005805460ff1916905550620000ad336200022c565b60016006558051600514620000fd5760405162461bcd60e51b81526020600482015260116024820152706e65656420352076616c696461746f727360781b60448201526064015b60405180910390fd5b62000108336200022c565b60005b8151811015620002245760006001600160a01b031682828151811062000135576200013562000558565b60200260200101516001600160a01b031603620001895760405162461bcd60e51b815260206004820152601160248201527034b73b30b634b2103b30b634b230ba37b960791b6044820152606401620000f4565b6000620001bd838381518110620001a457620001a462000558565b602002602001015160076200028660201b90919060201c565b9050806200020e5760405162461bcd60e51b815260206004820152601360248201527f6475706c69636174652076616c696461746f72000000000000000000000000006044820152606401620000f4565b50806200021b816200056e565b9150506200010b565b505062000596565b600580546001600160a01b03838116610100818102610100600160a81b031985161790945560405193909204169182907f8be0079c531659141344cd1fd0a4f28419497f9722a3daafe3b4186f6b6457e090600090a35050565b60006200029d836001600160a01b038416620002a6565b90505b92915050565b6000818152600183016020526040812054620002ef57508154600181810184556000848152602080822090930184905584548482528286019093526040902091909155620002a0565b506000620002a0565b634e487b7160e01b600052604160045260246000fd5b80516001600160a01b03811681146200032657600080fd5b919050565b600060208083850312156200033f57600080fd5b82516001600160401b03808211156200035757600080fd5b818501915085601f8301126200036c57600080fd5b815181811115620003815762000381620002f8565b8060051b604051601f19603f83011681018181108582111715620003a957620003a9620002f8565b604052918252848201925083810185019188831115620003c857600080fd5b938501935b82851015620003f157620003e1856200030e565b84529385019392850192620003cd565b98975050505050505050565b600181811c908216806200041257607f821691505b6020821081036200043357634e487b7160e01b600052602260045260246000fd5b50919050565b601f8211156200048757600081815260208120601f850160051c81016020861015620004625750805b601f850160051c820191505b8181101562000483578281556001016200046e565b5050505b505050565b81516001600160401b03811115620004a857620004a8620002f8565b620004c081620004b98454620003fd565b8462000439565b602080601f831160018114620004f85760008415620004df5750858301515b600019600386901b1c1916600185901b17855562000483565b600085815260208120601f198616915b82811015620005295788860151825594840194600190910190840162000508565b5085821015620005485787850151600019600388901b60f8161c191681555b5050505050600190811b01905550565b634e487b7160e01b600052603260045260246000fd5b6000600182016200058f57634e487b7160e01b600052601160045260246000fd5b5060010190565b611df680620005a66000396000f3fe608060405234801561001057600080fd5b50600436106102115760003560e01c80638456cb5911610125578063b7ab4db5116100ad578063cb4163571161007c578063cb416357146104a6578063dd62ed3e146104b9578063f2fde38b146104cc578063fa9b7018146104df578063facd743b146104f057600080fd5b8063b7ab4db51461042b578063bc74f04614610440578063c1f0808a14610463578063c9ceddb81461048657600080fd5b806395d89b41116100f457806395d89b41146103d75780639dc29fac146103df578063a2dbcce7146103f2578063a457c2d714610405578063a9059cbb1461041857600080fd5b80638456cb59146103665780638d1ba3461461036e5780638da5cb5b1461038e5780639184eef7146103b757600080fd5b80633f4ba83a116101a85780635c975abb116101775780635c975abb146103195780636e99d52f1461032457806370a082311461032d578063715018a6146103565780637a6eea371461035e57600080fd5b80633f4ba83a146102e157806340a141ff146102e95780634623c81e146102fc5780634d238c8e1461030657600080fd5b806324f6c776116101e457806324f6c7761461027c578063288099cc146102aa578063313ce567146102bf57806339509351146102ce57600080fd5b806306fdde0314610216578063095ea7b31461023457806318160ddd1461025757806323b872dd14610269575b600080fd5b61021e610503565b60405161022b9190611b39565b60405180910390f35b610247610242366004611ba3565b610595565b604051901515815260200161022b565b6002545b60405190815260200161022b565b610247610277366004611bcd565b6105af565b61024761028a366004611c09565b600a60209081526000928352604080842090915290825290205460ff1681565b6102bd6102b8366004611c35565b6105d3565b005b6040516012815260200161022b565b6102476102dc366004611ba3565b6106e6565b6102bd610708565b6102bd6102f7366004611c5a565b61071a565b61025b6201518081565b6102bd610314366004611c5a565b6107d1565b60055460ff16610247565b61025b610e1081565b61025b61033b366004611c5a565b6001600160a01b031660009081526020819052604090205490565b6102bd6108c1565b61025b600381565b6102bd6108d3565b61025b61037c366004611c75565b600b6020526000908152604090205481565b60055461010090046001600160a01b03166040516001600160a01b03909116815260200161022b565b61025b6103c5366004611c5a565b600e6020526000908152604090205481565b61021e6108e3565b6102bd6103ed366004611ba3565b6108f2565b6102bd610400366004611c35565b610904565b610247610413366004611ba3565b610cb6565b610247610426366004611ba3565b610d31565b610433610d3f565b60405161022b9190611c8e565b61024761044e366004611c75565b600d6020526000908152604090205460ff1681565b610247610471366004611c75565b60096020526000908152604090205460ff1681565b61025b610494366004611c75565b600c6020526000908152604090205481565b6102bd6104b4366004611c35565b610d50565b61025b6104c7366004611cdb565b610f55565b6102bd6104da366004611c5a565b610f80565b61025b69d3c21bcecceda100000081565b6102476104fe366004611c5a565b610ff9565b60606003805461051290611d05565b80601f016020809104026020016040519081016040528092919081815260200182805461053e90611d05565b801561058b5780601f106105605761010080835404028352916020019161058b565b820191906000526020600020905b81548152906001019060200180831161056e57829003601f168201915b5050505050905090565b6000336105a3818585611006565b60019150505b92915050565b6000336105bd858285611122565b6105c885858561119c565b506001949350505050565b60008381526009602052604090205460ff16156106235760405162461bcd60e51b81526020600482015260096024820152681c1c9bd8d95cdcd95960ba1b60448201526064015b60405180910390fd5b6001600160a01b0382166106625760405162461bcd60e51b815260206004820152600660248201526562616420746f60d01b604482015260640161061a565b6000811161069d5760405162461bcd60e51b81526020600482015260086024820152670616d6f756e743d360c41b604482015260640161061a565b816001600160a01b0316837f947dee39e30d6ba4d00893973a736680a7c0490f49d4f852819aeb02355ad8b4836040516106d991815260200190565b60405180910390a3505050565b6000336105a38185856106f98383610f55565b6107039190611d55565b611006565b610710611340565b6107186113a0565b565b610722611340565b600361072e60076113f2565b1161077b5760405162461bcd60e51b815260206004820152601a60248201527f6e656564206174206c6561737420332076616c696461746f7273000000000000604482015260640161061a565b60006107886007836113fc565b9050806107cd5760405162461bcd60e51b81526020600482015260136024820152721d985b1a59185d1bdc881b9bdd08199bdd5b99606a1b604482015260640161061a565b5050565b6107d9611340565b6001600160a01b0381166108235760405162461bcd60e51b815260206004820152601160248201527034b73b30b634b2103b30b634b230ba37b960791b604482015260640161061a565b600a61082f60076113f2565b106108725760405162461bcd60e51b8152602060048201526013602482015272746f6f206d616e792076616c696461746f727360681b604482015260640161061a565b600061087f600783611418565b9050806107cd5760405162461bcd60e51b815260206004820152601060248201526f76616c696461746f722065786973747360801b604482015260640161061a565b6108c9611340565b610718600061142d565b6108db611340565b610718611487565b60606004805461051290611d05565b6108fa611340565b6107cd82826114c4565b61090c6115f6565b61091461163c565b61091d33610ff9565b6109595760405162461bcd60e51b815260206004820152600d60248201526c3737ba103b30b634b230ba37b960991b604482015260640161061a565b60008381526009602052604090205460ff16156109a45760405162461bcd60e51b81526020600482015260096024820152681c1c9bd8d95cdcd95960ba1b604482015260640161061a565b6001600160a01b0382166109e35760405162461bcd60e51b815260206004820152600660248201526562616420746f60d01b604482015260640161061a565b60008111610a1e5760405162461bcd60e51b81526020600482015260086024820152670616d6f756e743d360c41b604482015260640161061a565b69d3c21bcecceda1000000811115610a6b5760405162461bcd60e51b815260206004820152601060248201526f616d6f756e7420746f6f206c6172676560801b604482015260640161061a565b336000908152600e6020526040902054610a8890610e1090611d55565b421015610ac95760405162461bcd60e51b815260206004820152600f60248201526e18dbdbdb191bdddb881c195c9a5bd9608a1b604482015260640161061a565b610ad4838383611695565b6000838152600a6020908152604080832033845290915290205460ff1615610b295760405162461bcd60e51b8152602060048201526008602482015267185c1c1c9bdd995960c21b604482015260640161061a565b6000838152600a602090815260408083203384528252808320805460ff19166001908117909155868452600b9092528220805491929091610b6b908490611d55565b9091555050336000818152600e60209081526040808320429055868352600b82529182902054915191825285917f67e1828bee8aa442008e492aac52df6c528a83a89adc973b8aeef8544c95053d910160405180910390a36000838152600b6020526040902054600311610ca75769021e19e0c9bab2400000811115610c3f576000838152600c6020526040908190204290819055905184917f28b2cc09803d48eafdd268a64dff7eb0cf0e8e654f9c79c87b1ea05d8d51c7b491610c3291815260200190565b60405180910390a2610ca7565b6000838152600960205260409020805460ff19166001179055610c62828261182e565b816001600160a01b0316837f1a49076e0e8c733171c5360d78c9ae8e19fef5a0720b926e72f78b7cc37618cd83604051610c9e91815260200190565b60405180910390a35b610cb16001600655565b505050565b60003381610cc48286610f55565b905083811015610d245760405162461bcd60e51b815260206004820152602560248201527f45524332303a2064656372656173656420616c6c6f77616e63652062656c6f77604482015264207a65726f60d81b606482015260840161061a565b6105c88286868403611006565b6000336105a381858561119c565b6060610d4b60076118ed565b905090565b6000838152600c6020526040902054610d995760405162461bcd60e51b815260206004820152600b60248201526a6e6f2074696d656c6f636b60a81b604482015260640161061a565b6000838152600d602052604090205460ff1615610deb5760405162461bcd60e51b815260206004820152601060248201526f185b1c9958591e48195e1958dd5d195960821b604482015260640161061a565b6000838152600c6020526040902054610e08906201518090611d55565b421015610e4e5760405162461bcd60e51b81526020600482015260146024820152731d1a5b595b1bd8dac81b9bdd08195e1c1a5c995960621b604482015260640161061a565b6000838152600b602052604090205460031115610ea65760405162461bcd60e51b8152602060048201526016602482015275696e73756666696369656e7420617070726f76616c7360501b604482015260640161061a565b6000838152600d602090815260408083208054600160ff1991821681179092556009909352922080549091169091179055610ee1828261182e565b816001600160a01b0316837f1a49076e0e8c733171c5360d78c9ae8e19fef5a0720b926e72f78b7cc37618cd83604051610f1d91815260200190565b60405180910390a360405183907f608879471643fec8a3d053e61fed9b5bb710b0ae4b697d1678d92eb5ea6d00be90600090a2505050565b6001600160a01b03918216600090815260016020908152604080832093909416825291909152205490565b610f88611340565b6001600160a01b038116610fed5760405162461bcd60e51b815260206004820152602660248201527f4f776e61626c653a206e6577206f776e657220697320746865207a65726f206160448201526564647265737360d01b606482015260840161061a565b610ff68161142d565b50565b60006105a96007836118fa565b6001600160a01b0383166110685760405162461bcd60e51b8152602060048201526024808201527f45524332303a20617070726f76652066726f6d20746865207a65726f206164646044820152637265737360e01b606482015260840161061a565b6001600160a01b0382166110c95760405162461bcd60e51b815260206004820152602260248201527f45524332303a20617070726f766520746f20746865207a65726f206164647265604482015261737360f01b606482015260840161061a565b6001600160a01b0383811660008181526001602090815260408083209487168084529482529182902085905590518481527f8c5be1e5ebec7d5bd14f71427d1e84f3dd0314c0f7b2291e5b200ac8c7c3b92591016106d9565b600061112e8484610f55565b9050600019811461119657818110156111895760405162461bcd60e51b815260206004820152601d60248201527f45524332303a20696e73756666696369656e7420616c6c6f77616e6365000000604482015260640161061a565b6111968484848403611006565b50505050565b6001600160a01b0383166112005760405162461bcd60e51b815260206004820152602560248201527f45524332303a207472616e736665722066726f6d20746865207a65726f206164604482015264647265737360d81b606482015260840161061a565b6001600160a01b0382166112625760405162461bcd60e51b815260206004820152602360248201527f45524332303a207472616e7366657220746f20746865207a65726f206164647260448201526265737360e81b606482015260840161061a565b6001600160a01b038316600090815260208190526040902054818110156112da5760405162461bcd60e51b815260206004820152602660248201527f45524332303a207472616e7366657220616d6f756e7420657863656564732062604482015265616c616e636560d01b606482015260840161061a565b6001600160a01b03848116600081815260208181526040808320878703905593871680835291849020805487019055925185815290927fddf252ad1be2c89b69c2b068fc378daa952ba7f163c4a11628f55a4df523b3ef910160405180910390a3611196565b6005546001600160a01b036101009091041633146107185760405162461bcd60e51b815260206004820181905260248201527f4f776e61626c653a2063616c6c6572206973206e6f7420746865206f776e6572604482015260640161061a565b6113a861191c565b6005805460ff191690557f5db9ee0a495bf2e6ff9c91a7834c1ba4fdd244a5e8aa4e537bd38aeae4b073aa335b6040516001600160a01b03909116815260200160405180910390a1565b60006105a9825490565b6000611411836001600160a01b038416611965565b9392505050565b6000611411836001600160a01b038416611a58565b600580546001600160a01b03838116610100818102610100600160a81b031985161790945560405193909204169182907f8be0079c531659141344cd1fd0a4f28419497f9722a3daafe3b4186f6b6457e090600090a35050565b61148f6115f6565b6005805460ff191660011790557f62e78cea01bee320cd4e420270b5ea74000d11b0c9f74754ebdbfc544b05a2586113d53390565b6001600160a01b0382166115245760405162461bcd60e51b815260206004820152602160248201527f45524332303a206275726e2066726f6d20746865207a65726f206164647265736044820152607360f81b606482015260840161061a565b6001600160a01b038216600090815260208190526040902054818110156115985760405162461bcd60e51b815260206004820152602260248201527f45524332303a206275726e20616d6f756e7420657863656564732062616c616e604482015261636560f01b606482015260840161061a565b6001600160a01b0383166000818152602081815260408083208686039055600280548790039055518581529192917fddf252ad1be2c89b69c2b068fc378daa952ba7f163c4a11628f55a4df523b3ef910160405180910390a3505050565b60055460ff16156107185760405162461bcd60e51b815260206004820152601060248201526f14185d5cd8589b194e881c185d5cd95960821b604482015260640161061a565b60026006540361168e5760405162461bcd60e51b815260206004820152601f60248201527f5265656e7472616e637947756172643a207265656e7472616e742063616c6c00604482015260640161061a565b6002600655565b6000805b6116a360076113f2565b8110156117365760006116b7600783611aa7565b6000878152600a602090815260408083206001600160a01b038516845290915290205490915060ff16801561171057506001600160a01b0381166000908152600e602052604090205461012c9061170e9042611d68565b105b15611723578261171f81611d7b565b9350505b508061172e81611d7b565b915050611699565b5060028111156117b557837fd113777e45e72829bd5ebb9ad0ed0581a53b023cdcb5a91a3ee923d7fda60af26040516117ac9060208082526023908201527f5261706964207375636365737369766520617070726f76616c732064657465636040820152621d195960ea1b606082015260800190565b60405180910390a25b690a968163f0a57b40000082111561119657837fd113777e45e72829bd5ebb9ad0ed0581a53b023cdcb5a91a3ee923d7fda60af260405161182090602080825260169082015275155b9d5cdd585b1b1e481b185c99d948185b5bdd5b9d60521b604082015260600190565b60405180910390a250505050565b6001600160a01b0382166118845760405162461bcd60e51b815260206004820152601f60248201527f45524332303a206d696e7420746f20746865207a65726f206164647265737300604482015260640161061a565b80600260008282546118969190611d55565b90915550506001600160a01b038216600081815260208181526040808320805486019055518481527fddf252ad1be2c89b69c2b068fc378daa952ba7f163c4a11628f55a4df523b3ef910160405180910390a35050565b6060600061141183611ab3565b6001600160a01b03811660009081526001830160205260408120541515611411565b60055460ff166107185760405162461bcd60e51b815260206004820152601460248201527314185d5cd8589b194e881b9bdd081c185d5cd95960621b604482015260640161061a565b60008181526001830160205260408120548015611a4e576000611989600183611d68565b855490915060009061199d90600190611d68565b9050818114611a025760008660000182815481106119bd576119bd611d94565b90600052602060002001549050808760000184815481106119e0576119e0611d94565b6000918252602080832090910192909255918252600188019052604090208390555b8554869080611a1357611a13611daa565b6001900381819060005260206000200160009055905585600101600086815260200190815260200160002060009055600193505050506105a9565b60009150506105a9565b6000818152600183016020526040812054611a9f575081546001818101845560008481526020808220909301849055845484825282860190935260409020919091556105a9565b5060006105a9565b60006114118383611b0f565b606081600001805480602002602001604051908101604052809291908181526020018280548015611b0357602002820191906000526020600020905b815481526020019060010190808311611aef575b50505050509050919050565b6000826000018281548110611b2657611b26611d94565b9060005260206000200154905092915050565b600060208083528351808285015260005b81811015611b6657858101830151858201604001528201611b4a565b506000604082860101526040601f19601f8301168501019250505092915050565b80356001600160a01b0381168114611b9e57600080fd5b919050565b60008060408385031215611bb657600080fd5b611bbf83611b87565b946020939093013593505050565b600080600060608486031215611be257600080fd5b611beb84611b87565b9250611bf960208501611b87565b9150604084013590509250925092565b60008060408385031215611c1c57600080fd5b82359150611c2c60208401611b87565b90509250929050565b600080600060608486031215611c4a57600080fd5b83359250611bf960208501611b87565b600060208284031215611c6c57600080fd5b61141182611b87565b600060208284031215611c8757600080fd5b5035919050565b6020808252825182820181905260009190848201906040850190845b81811015611ccf5783516001600160a01b031683529284019291840191600101611caa565b50909695505050505050565b60008060408385031215611cee57600080fd5b611cf783611b87565b9150611c2c60208401611b87565b600181811c90821680611d1957607f821691505b602082108103611d3957634e487b7160e01b600052602260045260246000fd5b50919050565b634e487b7160e01b600052601160045260246000fd5b808201808211156105a9576105a9611d3f565b818103818111156105a9576105a9611d3f565b600060018201611d8d57611d8d611d3f565b5060010190565b634e487b7160e01b600052603260045260246000fd5b634e487b7160e01b600052603160045260246000fdfea26469706673582212203108b6cd92c7c0bcd6138b49fca14fd30fb090e1adb84f8b38fe7f3d93d7d73f64736f6c63430008140033",
  "linkReferences": {},
  "deployedLinkReferences": {}
}