{
  "_format": "hh-sol-artifact-1",
  "contractName": "PIOMint",
  "sourceName": "contracts/PIOMint.sol",
  "abi": [
    {
      "inputs": [
        {
          "internalType": "address[]",
          "name": "validators",
          "type": "address[]"
        }
      ],
      "stateMutability": "nonpayable",
      "type": "constructor"
    },
    {
      "anonymous": false,
      "inputs": [
        {
          "indexed": true,
          "internalType": "address",
          "name": "owner",
          "type": "address"
        },
        {
          "indexed": true,
          "internalType": "address",
          "name": "spender",
          "type": "address"
        },
        {
          "indexed": false,
          "internalType": "uint256",
          "name": "value",
          "type": "uint256"
        }
      ],
      "name": "Approval",
      "type": "event"
    },
    {
      "anonymous": false,
      "inputs": [
        {
          "indexed": true,
          "internalType": "bytes32",
          "name": "lockId",
          "type": "bytes32"
        },
        {
          "indexed": true,
          "internalType": "address",
          "name": "validator",
          "type": "address"
        },
        {
          "indexed": false,
          "internalType": "uint256",
          "name": "approvals",
          "type": "uint256"
        }
      ],
      "name": "MintApproved",
      "type": "event"
    },
    {
      "anonymous": false,
      "inputs": [
        {
          "indexed": true,
          "internalType": "bytes32",
          "name": "lockId",
          "type": "bytes32"
        },
        {
          "indexed": true,
          "internalType": "address",
          "name": "to",
          "type": "address"
        },
        {
          "indexed": false,
          "internalType": "uint256",
          "name": "amount",
          "type": "uint256"
        }
      ],
      "name": "MintRequested",
      "type": "event"
    },
    {
      "anonymous": false,
      "inputs": [
        {
          "indexed": true,
          "internalType": "bytes32",
          "name": "lockId",
          "type": "bytes32"
        },
        {
          "indexed": true,
          "internalType": "address",
          "name": "to",
          "type": "address"
        },
        {
          "indexed": false,
          "internalType": "uint256",
          "name": "amount",
          "type": "uint256"
        }
      ],
      "name": "Minted",
      "type": "event"
    },
    {
      "anonymous": false,
      "inputs": [
        {
          "indexed": true,
          "internalType": "address",
          "name": "from",
          "type": "address"
        },
        {
          "indexed": true,
          "internalType": "address",
          "name": "to",
          "type": "address"
        },
        {
          "indexed": false,
          "internalType": "uint256",
          "name": "value",
          "type": "uint256"
        }
      ],
      "name": "Transfer",
      "type": "event"
    },
    {
      "inputs": [],
      "name": "VALIDATOR_THRESHOLD",
      "outputs": [
        {
          "internalType": "uint256",
          "name": "",
          "type": "uint256"
        }
      ],
      "stateMutability": "view",
      "type": "function"
    },
    {
      "inputs": [
        {
          "internalType": "address",
          "name": "owner",
          "type": "address"
        },
        {
          "internalType": "address",
          "name": "spender",
          "type": "address"
        }
      ],
      "name": "allowance",
      "outputs": [
        {
          "internalType": "uint256",
          "name": "",
          "type": "uint256"
        }
      ],
      "stateMutability": "view",
      "type": "function"
    },
    {
      "inputs": [
        {
          "internalType": "bytes32",
          "name": "",
          "type": "bytes32"
        }
      ],
      "name": "approvalCount",
      "outputs": [
        {
          "internalType": "uint256",
          "name": "",
          "type": "uint256"
        }
      ],
      "stateMutability": "view",
      "type": "function"
    },
    {
      "inputs": [
        {
          "internalType": "bytes32",
          "name": "",
          "type": "bytes32"
        },
        {
          "internalType": "address",
          "name": "",
          "type": "address"
        }
      ],
      "name": "approvals",
      "outputs": [
        {
          "internalType": "bool",
          "name": "",
          "type": "bool"
        }
      ],
      "stateMutability": "view",
      "type": "function"
    },
    {
      "inputs": [
        {
          "internalType": "address",
          "name": "spender",
          "type": "address"
        },
        {
          "internalType": "uint256",
          "name": "amount",
          "type": "uint256"
        }
      ],
      "name": "approve",
      "outputs": [
        {
          "internalType": "bool",
          "name": "",
          "type": "bool"
        }
      ],
      "stateMutability": "nonpayable",
      "type": "function"
    },
    {
      "inputs": [
        {
          "internalType": "bytes32",
          "name": "lockId",
          "type": "bytes32"
        },
        {
          "internalType": "address",
          "name": "to",
          "type": "address"
        },
        {
          "internalType": "uint256",
          "name": "amount",
          "type": "uint256"
        }
      ],
      "name": "approveMint",
      "outputs": [],
      "stateMutability": "nonpayable",
      "type": "function"
    },
    {
      "inputs": [
        {
          "internalType": "address",
          "name": "account",
          "type": "address"
        }
      ],
      "name": "balanceOf",
      "outputs": [
        {
          "internalType": "uint256",
          "name": "",
          "type": "uint256"
        }
      ],
      "stateMutability": "view",
      "type": "function"
    },
    {
      "inputs": [],
      "name": "decimals",
      "outputs": [
        {
          "internalType": "uint8",
          "name": "",
          "type": "uint8"
        }
      ],
      "stateMutability": "view",
      "type": "function"
    },
    {
      "inputs": [
        {
          "internalType": "address",
          "name": "spender",
          "type": "address"
        },
        {
          "internalType": "uint256",
          "name": "subtractedValue",
          "type": "uint256"
        }
      ],
      "name": "decreaseAllowance",
      "outputs": [
        {
          "internalType": "bool",
          "name": "",
          "type": "bool"
        }
      ],
      "stateMutability": "nonpayable",
      "type": "function"
    },
    {
      "inputs": [],
      "name": "getValidators",
      "outputs": [
        {
          "internalType": "address[]",
          "name": "",
          "type": "address[]"
        }
      ],
      "stateMutability": "view",
      "type": "function"
    },
    {
      "inputs": [
        {
          "internalType": "address",
          "name": "spender",
          "type": "address"
        },
        {
          "internalType": "uint256",
          "name": "addedValue",
          "type": "uint256"
        }
      ],
      "name": "increaseAllowance",
      "outputs": [
        {
          "internalType": "bool",
          "name": "",
          "type": "bool"
        }
      ],
      "stateMutability": "nonpayable",
      "type": "function"
    },
    {
      "inputs": [
        {
          "internalType": "address",
          "name": "account",
          "type": "address"
        }
      ],
      "name": "isValidator",
      "outputs": [
        {
          "internalType": "bool",
          "name": "",
          "type": "bool"
        }
      ],
      "stateMutability": "view",
      "type": "function"
    },
    {
      "inputs": [],
      "name": "name",
      "outputs": [
        {
          "internalType": "string",
          "name": "",
          "type": "string"
        }
      ],
      "stateMutability": "view",
      "type": "function"
    },
    {
      "inputs": [
        {
          "internalType": "bytes32",
          "name": "",
          "type": "bytes32"
        }
      ],
      "name": "processed",
      "outputs": [
        {
          "internalType": "bool",
          "name": "",
          "type": "bool"
        }
      ],
      "stateMutability": "view",
      "type": "function"
    },
    {
      "inputs": [
        {
          "internalType": "bytes32",
          "name": "lockId",
          "type": "bytes32"
        },
        {
          "internalType": "address",
          "name": "to",
          "type": "address"
        },
        {
          "internalType": "uint256",
          "name": "amount",
          "type": "uint256"
        }
      ],
      "name": "requestMint",
      "outputs": [],
      "stateMutability": "nonpayable",
      "type": "function"
    },
    {
      "inputs": [],
      "name": "symbol",
      "outputs": [
        {
          "internalType": "string",
          "name": "",
          "type": "string"
        }
      ],
      "stateMutability": "view",
      "type": "function"
    },
    {
      "inputs": [],
      "name": "totalSupply",
      "outputs": [
        {
          "internalType": "uint256",
          "name": "",
          "type": "uint256"
        }
      ],
      "stateMutability": "view",
      "type": "function"
    },
    {
      "inputs": [
        {
          "internalType": "address",
          "name": "to",
          "type": "address"
        },
        {
          "internalType": "uint256",
          "name": "amount",
          "type": "uint256"
        }
      ],
      "name": "transfer",
      "outputs": [
        {
          "internalType": "bool",
          "name": "",
          "type": "bool"
        }
      ],
      "stateMutability": "nonpayable",
      "type": "function"
    },
    {
      "inputs": [
        {
          "internalType": "address",
          "name": "from",
          "type": "address"
        },
        {
          "internalType": "address",
          "name": "to",
          "type": "address"
        },
        {
          "internalType": "uint256",
          "name": "amount",
          "type": "uint256"
        }
      ],
      "name": "transferFrom",
      "outputs": [
        {
          "internalType": "bool",
          "name": "",
          "type": "bool"
        }
      ],
      "stateMutability": "nonpayable",
      "type": "function"
    }
  ],
  "bytecode": "0x60806040523480156200001157600080fd5b506040516200143d3803806200143d8339810160408190526200003491620002ac565b6040518060400160405280600b81526020016a577261707065642050494f60a81b815250604051806040016040528060048152602001637750494f60e01b81525081600390816200008691906200040d565b5060046200009582826200040d565b5050508051600514620000e35760405162461bcd60e51b81526020600482015260116024820152706e65656420352076616c696461746f727360781b60448201526064015b60405180910390fd5b60005b8151811015620001ff5760006001600160a01b0316828281518110620001105762000110620004d9565b60200260200101516001600160a01b031603620001645760405162461bcd60e51b815260206004820152601160248201527034b73b30b634b2103b30b634b230ba37b960791b6044820152606401620000da565b6000620001988383815181106200017f576200017f620004d9565b602002602001015160056200020760201b90919060201c565b905080620001e95760405162461bcd60e51b815260206004820152601360248201527f6475706c69636174652076616c696461746f72000000000000000000000000006044820152606401620000da565b5080620001f681620004ef565b915050620000e6565b505062000517565b60006200021e836001600160a01b03841662000227565b90505b92915050565b6000818152600183016020526040812054620002705750815460018181018455600084815260208082209093018490558454848252828601909352604090209190915562000221565b50600062000221565b634e487b7160e01b600052604160045260246000fd5b80516001600160a01b0381168114620002a757600080fd5b919050565b60006020808385031215620002c057600080fd5b82516001600160401b0380821115620002d857600080fd5b818501915085601f830112620002ed57600080fd5b81518181111562000302576200030262000279565b8060051b604051601f19603f830116810181811085821117156200032a576200032a62000279565b6040529182528482019250838101850191888311156200034957600080fd5b938501935b82851015620003725762000362856200028f565b845293850193928501926200034e565b98975050505050505050565b600181811c908216806200039357607f821691505b602082108103620003b457634e487b7160e01b600052602260045260246000fd5b50919050565b601f8211156200040857600081815260208120601f850160051c81016020861015620003e35750805b601f850160051c820191505b818110156200040457828155600101620003ef565b5050505b505050565b81516001600160401b0381111562000429576200042962000279565b62000441816200043a84546200037e565b84620003ba565b602080601f831160018114620004795760008415620004605750858301515b600019600386901b1c1916600185901b17855562000404565b600085815260208120601f198616915b82811015620004aa5788860151825594840194600190910190840162000489565b5085821015620004c95787850151600019600388901b60f8161c191681555b5050505050600190811b01905550565b634e487b7160e01b600052603260045260246000fd5b6000600182016200051057634e487b7160e01b600052601160045260246000fd5b5060010190565b610f1680620005276000396000f3fe608060405234801561001057600080fd5b50600436106101215760003560e01c80637a6eea37116100ad578063a9059cbb11610071578063a9059cbb14610270578063b7ab4db514610283578063c1f0808a14610298578063dd62ed3e146102bb578063facd743b146102ce57600080fd5b80637a6eea371461021a5780638d1ba3461461022257806395d89b4114610242578063a2dbcce71461024a578063a457c2d71461025d57600080fd5b806324f6c776116100f457806324f6c7761461018c578063288099cc146101ba578063313ce567146101cf57806339509351146101de57806370a08231146101f157600080fd5b806306fdde0314610126578063095ea7b31461014457806318160ddd1461016757806323b872dd14610179575b600080fd5b61012e6102e1565b60405161013b9190610cb9565b60405180910390f35b610157610152366004610d23565b610373565b604051901515815260200161013b565b6002545b60405190815260200161013b565b610157610187366004610d4d565b61038d565b61015761019a366004610d89565b600860209081526000928352604080842090915290825290205460ff1681565b6101cd6101c8366004610db5565b6103b1565b005b6040516012815260200161013b565b6101576101ec366004610d23565b6104c4565b61016b6101ff366004610dda565b6001600160a01b031660009081526020819052604090205490565b61016b600381565b61016b610230366004610df5565b60096020526000908152604090205481565b61012e6104e6565b6101cd610258366004610db5565b6104f5565b61015761026b366004610d23565b61075c565b61015761027e366004610d23565b6107d7565b61028b6107e5565b60405161013b9190610e0e565b6101576102a6366004610df5565b60076020526000908152604090205460ff1681565b61016b6102c9366004610e5b565b6107f6565b6101576102dc366004610dda565b610821565b6060600380546102f090610e85565b80601f016020809104026020016040519081016040528092919081815260200182805461031c90610e85565b80156103695780601f1061033e57610100808354040283529160200191610369565b820191906000526020600020905b81548152906001019060200180831161034c57829003601f168201915b5050505050905090565b60003361038181858561082e565b60019150505b92915050565b60003361039b85828561094a565b6103a68585856109c4565b506001949350505050565b60008381526007602052604090205460ff16156104015760405162461bcd60e51b81526020600482015260096024820152681c1c9bd8d95cdcd95960ba1b60448201526064015b60405180910390fd5b6001600160a01b0382166104405760405162461bcd60e51b815260206004820152600660248201526562616420746f60d01b60448201526064016103f8565b6000811161047b5760405162461bcd60e51b81526020600482015260086024820152670616d6f756e743d360c41b60448201526064016103f8565b816001600160a01b0316837f947dee39e30d6ba4d00893973a736680a7c0490f49d4f852819aeb02355ad8b4836040516104b791815260200190565b60405180910390a3505050565b6000336103818185856104d783836107f6565b6104e19190610ebf565b61082e565b6060600480546102f090610e85565b6104fe33610821565b61053a5760405162461bcd60e51b815260206004820152600d60248201526c3737ba103b30b634b230ba37b960991b60448201526064016103f8565b60008381526007602052604090205460ff16156105855760405162461bcd60e51b81526020600482015260096024820152681c1c9bd8d95cdcd95960ba1b60448201526064016103f8565b6001600160a01b0382166105c45760405162461bcd60e51b815260206004820152600660248201526562616420746f60d01b60448201526064016103f8565b600081116105ff5760405162461bcd60e51b81526020600482015260086024820152670616d6f756e743d360c41b60448201526064016103f8565b600083815260086020908152604080832033845290915290205460ff16156106545760405162461bcd60e51b8152602060048201526008602482015267185c1c1c9bdd995960c21b60448201526064016103f8565b60008381526008602090815260408083203384528252808320805460ff1916600190811790915586845260099092528220805491929091610696908490610ebf565b9091555050600083815260096020908152604091829020549151918252339185917f67e1828bee8aa442008e492aac52df6c528a83a89adc973b8aeef8544c95053d910160405180910390a3600083815260096020526040902054600311610757576000838152600760205260409020805460ff1916600117905561071b8282610b68565b816001600160a01b0316837f1a49076e0e8c733171c5360d78c9ae8e19fef5a0720b926e72f78b7cc37618cd836040516104b791815260200190565b505050565b6000338161076a82866107f6565b9050838110156107ca5760405162461bcd60e51b815260206004820152602560248201527f45524332303a2064656372656173656420616c6c6f77616e63652062656c6f77604482015264207a65726f60d81b60648201526084016103f8565b6103a6828686840361082e565b6000336103818185856109c4565b60606107f16005610c27565b905090565b6001600160a01b03918216600090815260016020908152604080832093909416825291909152205490565b6000610387600583610c3b565b6001600160a01b0383166108905760405162461bcd60e51b8152602060048201526024808201527f45524332303a20617070726f76652066726f6d20746865207a65726f206164646044820152637265737360e01b60648201526084016103f8565b6001600160a01b0382166108f15760405162461bcd60e51b815260206004820152602260248201527f45524332303a20617070726f766520746f20746865207a65726f206164647265604482015261737360f01b60648201526084016103f8565b6001600160a01b0383811660008181526001602090815260408083209487168084529482529182902085905590518481527f8c5be1e5ebec7d5bd14f71427d1e84f3dd0314c0f7b2291e5b200ac8c7c3b92591016104b7565b600061095684846107f6565b905060001981146109be57818110156109b15760405162461bcd60e51b815260206004820152601d60248201527f45524332303a20696e73756666696369656e7420616c6c6f77616e636500000060448201526064016103f8565b6109be848484840361082e565b50505050565b6001600160a01b038316610a285760405162461bcd60e51b815260206004820152602560248201527f45524332303a207472616e736665722066726f6d20746865207a65726f206164604482015264647265737360d81b60648201526084016103f8565b6001600160a01b038216610a8a5760405162461bcd60e51b815260206004820152602360248201527f45524332303a207472616e7366657220746f20746865207a65726f206164647260448201526265737360e81b60648201526084016103f8565b6001600160a01b03831660009081526020819052604090205481811015610b025760405162461bcd60e51b815260206004820152602660248201527f45524332303a207472616e7366657220616d6f756e7420657863656564732062604482015265616c616e636560d01b60648201526084016103f8565b6001600160a01b03848116600081815260208181526040808320878703905593871680835291849020805487019055925185815290927fddf252ad1be2c89b69c2b068fc378daa952ba7f163c4a11628f55a4df523b3ef910160405180910390a36109be565b6001600160a01b038216610bbe5760405162461bcd60e51b815260206004820152601f60248201527f45524332303a206d696e7420746f20746865207a65726f20616464726573730060448201526064016103f8565b8060026000828254610bd09190610ebf565b90915550506001600160a01b038216600081815260208181526040808320805486019055518481527fddf252ad1be2c89b69c2b068fc378daa952ba7f163c4a11628f55a4df523b3ef910160405180910390a35050565b60606000610c3483610c5d565b9392505050565b6001600160a01b03811660009081526001830160205260408120541515610c34565b606081600001805480602002602001604051908101604052809291908181526020018280548015610cad57602002820191906000526020600020905b815481526020019060010190808311610c99575b50505050509050919050565b600060208083528351808285015260005b81811015610ce657858101830151858201604001528201610cca565b506000604082860101526040601f19601f8301168501019250505092915050565b80356001600160a01b0381168114610d1e57600080fd5b919050565b60008060408385031215610d3657600080fd5b610d3f83610d07565b946020939093013593505050565b600080600060608486031215610d6257600080fd5b610d6b84610d07565b9250610d7960208501610d07565b9150604084013590509250925092565b60008060408385031215610d9c57600080fd5b82359150610dac60208401610d07565b90509250929050565b600080600060608486031215610dca57600080fd5b83359250610d7960208501610d07565b600060208284031215610dec57600080fd5b610c3482610d07565b600060208284031215610e0757600080fd5b5035919050565b6020808252825182820181905260009190848201906040850190845b81811015610e4f5783516001600160a01b031683529284019291840191600101610e2a565b50909695505050505050565b60008060408385031215610e6e57600080fd5b610e7783610d07565b9150610dac60208401610d07565b600181811c90821680610e9957607f821691505b602082108103610eb957634e487b7160e01b600052602260045260246000fd5b50919050565b8082018082111561038757634e487b7160e01b600052601160045260246000fdfea26469706673582212203bd2b55d6b68475c74562bc82318efd2075dc57535fe0deef67bac13ea6fd7f264736f6c63430008140033",
  "linkReferences": {},
  "deployedLinkReferences": {}
}