{
  "_format": "hh-sol-artifact-1",
  "contractName": "PIOMint",
  "sourceName": "contracts/PIOMint.sol",
  "abi": [
    {
      "inputs": [
        {
          "internalType": "address[]",
          "name": "validators",
          "type": "address[]"
        }
      ],
      "stateMutability": "nonpayable",
      "type": "constructor"
    },
    {
      "anonymous": false,
      "inputs": [
        {
          "indexed": true,
          "internalType": "address",
          "name": "owner",
          "type": "address"
        },
        {
          "indexed": true,
          "internalType": "address",
          "name": "spender",
          "type": "address"
        },
        {
          "indexed": false,
          "internalType": "uint256",
          "name": "value",
          "type": "uint256"
        }
      ],
      "name": "Approval",
      "type": "event"
    },
    {
      "anonymous": false,
      "inputs": [
        {
          "indexed": true,
          "internalType": "bytes32",
          "name": "lockId",
          "type": "bytes32"
        },
        {
          "indexed": true,
          "internalType": "address",
          "name": "validator",
          "type": "address"
        },
        {
          "indexed": false,
          "internalType": "uint256",
          "name": "approvals",
          "type": "uint256"
        }
      ],
      "name": "MintApproved",
      "type": "event"
    },
    {
      "anonymous": false,
      "inputs": [
        {
          "indexed": true,
          "internalType": "bytes32",
          "name": "lockId",
          "type": "bytes32"
        },
        {
          "indexed": true,
          "internalType": "address",
          "name": "to",
          "type": "address"
        },
        {
          "indexed": false,
          "internalType": "uint256",
          "name": "amount",
          "type": "uint256"
        }
      ],
      "name": "MintRequested",
      "type": "event"
    },
    {
      "anonymous": false,
      "inputs": [
        {
          "indexed": true,
          "internalType": "bytes32",
          "name": "lockId",
          "type": "bytes32"
        },
        {
          "indexed": true,
          "internalType": "address",
          "name": "to",
          "type": "address"
        },
        {
          "indexed": false,
          "internalType": "uint256",
          "name": "amount",
          "type": "uint256"
        }
      ],
      "name": "Minted",
      "type": "event"
    },
    {
      "anonymous": false,
      "inputs": [
        {
          "indexed": true,
          "internalType": "address",
          "name": "previousOwner",
          "type": "address"
        },
        {
          "indexed": true,
          "internalType": "address",
          "name": "newOwner",
          "type": "address"
        }
      ],
      "name": "OwnershipTransferred",
      "type": "event"
    },
    {
      "anonymous": false,
      "inputs": [
        {
          "indexed": false,
          "internalType": "address",
          "name": "account",
          "type": "address"
        }
      ],
      "name": "Paused",
      "type": "event"
    },
    {
      "anonymous": false,
      "inputs": [
        {
          "indexed": true,
          "internalType": "address",
          "name": "from",
          "type": "address"
        },
        {
          "indexed": true,
          "internalType": "address",
          "name": "to",
          "type": "address"
        },
        {
          "indexed": false,
          "internalType": "uint256",
          "name": "value",
          "type": "uint256"
        }
      ],
      "name": "Transfer",
      "type": "event"
    },
    {
      "anonymous": false,
      "inputs": [
        {
          "indexed": false,
          "internalType": "address",
          "name": "account",
          "type": "address"
        }
      ],
      "name": "Unpaused",
      "type": "event"
    },
    {
      "inputs": [],
      "name": "VALIDATOR_THRESHOLD",
      "outputs": [
        {
          "internalType": "uint256",
          "name": "",
          "type": "uint256"
        }
      ],
      "stateMutability": "view",
      "type": "function"
    },
    {
      "inputs": [
        {
          "internalType": "address",
          "name": "validator",
          "type": "address"
        }
      ],
      "name": "addValidator",
      "outputs": [],
      "stateMutability": "nonpayable",
      "type": "function"
    },
    {
      "inputs": [
        {
          "internalType": "address",
          "name": "owner",
          "type": "address"
        },
        {
          "internalType": "address",
          "name": "spender",
          "type": "address"
        }
      ],
      "name": "allowance",
      "outputs": [
        {
          "internalType": "uint256",
          "name": "",
          "type": "uint256"
        }
      ],
      "stateMutability": "view",
      "type": "function"
    },
    {
      "inputs": [
        {
          "internalType": "bytes32",
          "name": "",
          "type": "bytes32"
        }
      ],
      "name": "approvalCount",
      "outputs": [
        {
          "internalType": "uint256",
          "name": "",
          "type": "uint256"
        }
      ],
      "stateMutability": "view",
      "type": "function"
    },
    {
      "inputs": [
        {
          "internalType": "bytes32",
          "name": "",
          "type": "bytes32"
        },
        {
          "internalType": "address",
          "name": "",
          "type": "address"
        }
      ],
      "name": "approvals",
      "outputs": [
        {
          "internalType": "bool",
          "name": "",
          "type": "bool"
        }
      ],
      "stateMutability": "view",
      "type": "function"
    },
    {
      "inputs": [
        {
          "internalType": "address",
          "name": "spender",
          "type": "address"
        },
        {
          "internalType": "uint256",
          "name": "amount",
          "type": "uint256"
        }
      ],
      "name": "approve",
      "outputs": [
        {
          "internalType": "bool",
          "name": "",
          "type": "bool"
        }
      ],
      "stateMutability": "nonpayable",
      "type": "function"
    },
    {
      "inputs": [
        {
          "internalType": "bytes32",
          "name": "lockId",
          "type": "bytes32"
        },
        {
          "internalType": "address",
          "name": "to",
          "type": "address"
        },
        {
          "internalType": "uint256",
          "name": "amount",
          "type": "uint256"
        }
      ],
      "name": "approveMint",
      "outputs": [],
      "stateMutability": "nonpayable",
      "type": "function"
    },
    {
      "inputs": [
        {
          "internalType": "address",
          "name": "account",
          "type": "address"
        }
      ],
      "name": "balanceOf",
      "outputs": [
        {
          "internalType": "uint256",
          "name": "",
          "type": "uint256"
        }
      ],
      "stateMutability": "view",
      "type": "function"
    },
    {
      "inputs": [
        {
          "internalType": "address",
          "name": "from",
          "type": "address"
        },
        {
          "internalType": "uint256",
          "name": "amount",
          "type": "uint256"
        }
      ],
      "name": "burn",
      "outputs": [],
      "stateMutability": "nonpayable",
      "type": "function"
    },
    {
      "inputs": [],
      "name": "decimals",
      "outputs": [
        {
          "internalType": "uint8",
          "name": "",
          "type": "uint8"
        }
      ],
      "stateMutability": "view",
      "type": "function"
    },
    {
      "inputs": [
        {
          "internalType": "address",
          "name": "spender",
          "type": "address"
        },
        {
          "internalType": "uint256",
          "name": "subtractedValue",
          "type": "uint256"
        }
      ],
      "name": "decreaseAllowance",
      "outputs": [
        {
          "internalType": "bool",
          "name": "",
          "type": "bool"
        }
      ],
      "stateMutability": "nonpayable",
      "type": "function"
    },
    {
      "inputs": [],
      "name": "getValidators",
      "outputs": [
        {
          "internalType": "address[]",
          "name": "",
          "type": "address[]"
        }
      ],
      "stateMutability": "view",
      "type": "function"
    },
    {
      "inputs": [
        {
          "internalType": "address",
          "name": "spender",
          "type": "address"
        },
        {
          "internalType": "uint256",
          "name": "addedValue",
          "type": "uint256"
        }
      ],
      "name": "increaseAllowance",
      "outputs": [
        {
          "internalType": "bool",
          "name": "",
          "type": "bool"
        }
      ],
      "stateMutability": "nonpayable",
      "type": "function"
    },
    {
      "inputs": [
        {
          "internalType": "address",
          "name": "account",
          "type": "address"
        }
      ],
      "name": "isValidator",
      "outputs": [
        {
          "internalType": "bool",
          "name": "",
          "type": "bool"
        }
      ],
      "stateMutability": "view",
      "type": "function"
    },
    {
      "inputs": [],
      "name": "name",
      "outputs": [
        {
          "internalType": "string",
          "name": "",
          "type": "string"
        }
      ],
      "stateMutability": "view",
      "type": "function"
    },
    {
      "inputs": [],
      "name": "owner",
      "outputs": [
        {
          "internalType": "address",
          "name": "",
          "type": "address"
        }
      ],
      "stateMutability": "view",
      "type": "function"
    },
    {
      "inputs": [],
      "name": "pause",
      "outputs": [],
      "stateMutability": "nonpayable",
      "type": "function"
    },
    {
      "inputs": [],
      "name": "paused",
      "outputs": [
        {
          "internalType": "bool",
          "name": "",
          "type": "bool"
        }
      ],
      "stateMutability": "view",
      "type": "function"
    },
    {
      "inputs": [
        {
          "internalType": "bytes32",
          "name": "",
          "type": "bytes32"
        }
      ],
      "name": "processed",
      "outputs": [
        {
          "internalType": "bool",
          "name": "",
          "type": "bool"
        }
      ],
      "stateMutability": "view",
      "type": "function"
    },
    {
      "inputs": [
        {
          "internalType": "address",
          "name": "validator",
          "type": "address"
        }
      ],
      "name": "removeValidator",
      "outputs": [],
      "stateMutability": "nonpayable",
      "type": "function"
    },
    {
      "inputs": [],
      "name": "renounceOwnership",
      "outputs": [],
      "stateMutability": "nonpayable",
      "type": "function"
    },
    {
      "inputs": [
        {
          "internalType": "bytes32",
          "name": "lockId",
          "type": "bytes32"
        },
        {
          "internalType": "address",
          "name": "to",
          "type": "address"
        },
        {
          "internalType": "uint256",
          "name": "amount",
          "type": "uint256"
        }
      ],
      "name": "requestMint",
      "outputs": [],
      "stateMutability": "nonpayable",
      "type": "function"
    },
    {
      "inputs": [],
      "name": "symbol",
      "outputs": [
        {
          "internalType": "string",
          "name": "",
          "type": "string"
        }
      ],
      "stateMutability": "view",
      "type": "function"
    },
    {
      "inputs": [],
      "name": "totalSupply",
      "outputs": [
        {
          "internalType": "uint256",
          "name": "",
          "type": "uint256"
        }
      ],
      "stateMutability": "view",
      "type": "function"
    },
    {
      "inputs": [
        {
          "internalType": "address",
          "name": "to",
          "type": "address"
        },
        {
          "internalType": "uint256",
          "name": "amount",
          "type": "uint256"
        }
      ],
      "name": "transfer",
      "outputs": [
        {
          "internalType": "bool",
          "name": "",
          "type": "bool"
        }
      ],
      "stateMutability": "nonpayable",
      "type": "function"
    },
    {
      "inputs": [
        {
          "internalType": "address",
          "name": "from",
          "type": "address"
        },
        {
          "internalType": "address",
          "name": "to",
          "type": "address"
        },
        {
          "internalType": "uint256",
          "name": "amount",
          "type": "uint256"
        }
      ],
      "name": "transferFrom",
      "outputs": [
        {
          "internalType": "bool",
          "name": "",
          "type": "bool"
        }
      ],
      "stateMutability": "nonpayable",
      "type": "function"
    },
    {
      "inputs": [
        {
          "internalType": "address",
          "name": "newOwner",
          "type": "address"
        }
      ],
      "name": "transferOwnership",
      "outputs": [],
      "stateMutability": "nonpayable",
      "type": "function"
    },
    {
      "inputs": [],
      "name": "unpause",
      "outputs": [],
      "stateMutability": "nonpayable",
      "type": "function"
    }
  ],
  "bytecode": "0x60806040523480156200001157600080fd5b5060405162001da038038062001da083398101604081905262000034916200032b565b6040518060400160405280600b81526020016a577261707065642050494f60a81b815250604051806040016040528060048152602001637750494f60e01b81525081600390816200008691906200048c565b5060046200009582826200048c565b50506005805460ff1916905550620000ad336200022c565b60016006558051600514620000fd5760405162461bcd60e51b81526020600482015260116024820152706e65656420352076616c696461746f727360781b60448201526064015b60405180910390fd5b62000108336200022c565b60005b8151811015620002245760006001600160a01b031682828151811062000135576200013562000558565b60200260200101516001600160a01b031603620001895760405162461bcd60e51b815260206004820152601160248201527034b73b30b634b2103b30b634b230ba37b960791b6044820152606401620000f4565b6000620001bd838381518110620001a457620001a462000558565b602002602001015160076200028660201b90919060201c565b9050806200020e5760405162461bcd60e51b815260206004820152601360248201527f6475706c69636174652076616c696461746f72000000000000000000000000006044820152606401620000f4565b50806200021b816200056e565b9150506200010b565b505062000596565b600580546001600160a01b03838116610100818102610100600160a81b031985161790945560405193909204169182907f8be0079c531659141344cd1fd0a4f28419497f9722a3daafe3b4186f6b6457e090600090a35050565b60006200029d836001600160a01b038416620002a6565b90505b92915050565b6000818152600183016020526040812054620002ef57508154600181810184556000848152602080822090930184905584548482528286019093526040902091909155620002a0565b506000620002a0565b634e487b7160e01b600052604160045260246000fd5b80516001600160a01b03811681146200032657600080fd5b919050565b600060208083850312156200033f57600080fd5b82516001600160401b03808211156200035757600080fd5b818501915085601f8301126200036c57600080fd5b815181811115620003815762000381620002f8565b8060051b604051601f19603f83011681018181108582111715620003a957620003a9620002f8565b604052918252848201925083810185019188831115620003c857600080fd5b938501935b82851015620003f157620003e1856200030e565b84529385019392850192620003cd565b98975050505050505050565b600181811c908216806200041257607f821691505b6020821081036200043357634e487b7160e01b600052602260045260246000fd5b50919050565b601f8211156200048757600081815260208120601f850160051c81016020861015620004625750805b601f850160051c820191505b8181101562000483578281556001016200046e565b5050505b505050565b81516001600160401b03811115620004a857620004a8620002f8565b620004c081620004b98454620003fd565b8462000439565b602080601f831160018114620004f85760008415620004df5750858301515b600019600386901b1c1916600185901b17855562000483565b600085815260208120601f198616915b82811015620005295788860151825594840194600190910190840162000508565b5085821015620005485787850151600019600388901b60f8161c191681555b5050505050600190811b01905550565b634e487b7160e01b600052603260045260246000fd5b6000600182016200058f57634e487b7160e01b600052601160045260246000fd5b5060010190565b6117fa80620005a66000396000f3fe608060405234801561001057600080fd5b50600436106101c45760003560e01c80637a6eea37116100f9578063a457c2d711610097578063c1f0808a11610071578063c1f0808a146103c0578063dd62ed3e146103e3578063f2fde38b146103f6578063facd743b1461040957600080fd5b8063a457c2d714610385578063a9059cbb14610398578063b7ab4db5146103ab57600080fd5b80638da5cb5b116100d35780638da5cb5b1461032e57806395d89b41146103575780639dc29fac1461035f578063a2dbcce71461037257600080fd5b80637a6eea37146102fe5780638456cb59146103065780638d1ba3461461030e57600080fd5b806339509351116101665780634d238c8e116101405780634d238c8e146102af5780635c975abb146102c257806370a08231146102cd578063715018a6146102f657600080fd5b806339509351146102815780633f4ba83a1461029457806340a141ff1461029c57600080fd5b806323b872dd116101a257806323b872dd1461021c57806324f6c7761461022f578063288099cc1461025d578063313ce5671461027257600080fd5b806306fdde03146101c9578063095ea7b3146101e757806318160ddd1461020a575b600080fd5b6101d161041c565b6040516101de9190611556565b60405180910390f35b6101fa6101f53660046115c0565b6104ae565b60405190151581526020016101de565b6002545b6040519081526020016101de565b6101fa61022a3660046115ea565b6104c8565b6101fa61023d366004611626565b600a60209081526000928352604080842090915290825290205460ff1681565b61027061026b366004611652565b6104ec565b005b604051601281526020016101de565b6101fa61028f3660046115c0565b6105ff565b610270610621565b6102706102aa366004611677565b610633565b6102706102bd366004611677565b6106ea565b60055460ff166101fa565b61020e6102db366004611677565b6001600160a01b031660009081526020819052604090205490565b6102706107da565b61020e600381565b6102706107ec565b61020e61031c366004611692565b600b6020526000908152604090205481565b60055461010090046001600160a01b03166040516001600160a01b0390911681526020016101de565b6101d16107fc565b61027061036d3660046115c0565b61080b565b610270610380366004611652565b61081d565b6101fa6103933660046115c0565b610aa7565b6101fa6103a63660046115c0565b610b22565b6103b3610b30565b6040516101de91906116ab565b6101fa6103ce366004611692565b60096020526000908152604090205460ff1681565b61020e6103f13660046116f8565b610b41565b610270610404366004611677565b610b6c565b6101fa610417366004611677565b610be5565b60606003805461042b90611722565b80601f016020809104026020016040519081016040528092919081815260200182805461045790611722565b80156104a45780601f10610479576101008083540402835291602001916104a4565b820191906000526020600020905b81548152906001019060200180831161048757829003601f168201915b5050505050905090565b6000336104bc818585610bf2565b60019150505b92915050565b6000336104d6858285610d0e565b6104e1858585610d88565b506001949350505050565b60008381526009602052604090205460ff161561053c5760405162461bcd60e51b81526020600482015260096024820152681c1c9bd8d95cdcd95960ba1b60448201526064015b60405180910390fd5b6001600160a01b03821661057b5760405162461bcd60e51b815260206004820152600660248201526562616420746f60d01b6044820152606401610533565b600081116105b65760405162461bcd60e51b81526020600482015260086024820152670616d6f756e743d360c41b6044820152606401610533565b816001600160a01b0316837f947dee39e30d6ba4d00893973a736680a7c0490f49d4f852819aeb02355ad8b4836040516105f291815260200190565b60405180910390a3505050565b6000336104bc8185856106128383610b41565b61061c9190611772565b610bf2565b610629610f2c565b610631610f8c565b565b61063b610f2c565b60036106476007610fde565b116106945760405162461bcd60e51b815260206004820152601a60248201527f6e656564206174206c6561737420332076616c696461746f72730000000000006044820152606401610533565b60006106a1600783610fe8565b9050806106e65760405162461bcd60e51b81526020600482015260136024820152721d985b1a59185d1bdc881b9bdd08199bdd5b99606a1b6044820152606401610533565b5050565b6106f2610f2c565b6001600160a01b03811661073c5760405162461bcd60e51b815260206004820152601160248201527034b73b30b634b2103b30b634b230ba37b960791b6044820152606401610533565b600a6107486007610fde565b1061078b5760405162461bcd60e51b8152602060048201526013602482015272746f6f206d616e792076616c696461746f727360681b6044820152606401610533565b6000610798600783611004565b9050806106e65760405162461bcd60e51b815260206004820152601060248201526f76616c696461746f722065786973747360801b6044820152606401610533565b6107e2610f2c565b6106316000611019565b6107f4610f2c565b610631611073565b60606004805461042b90611722565b610813610f2c565b6106e682826110b0565b6108256111e2565b61082d611228565b61083633610be5565b6108725760405162461bcd60e51b815260206004820152600d60248201526c3737ba103b30b634b230ba37b960991b6044820152606401610533565b60008381526009602052604090205460ff16156108bd5760405162461bcd60e51b81526020600482015260096024820152681c1c9bd8d95cdcd95960ba1b6044820152606401610533565b6001600160a01b0382166108fc5760405162461bcd60e51b815260206004820152600660248201526562616420746f60d01b6044820152606401610533565b600081116109375760405162461bcd60e51b81526020600482015260086024820152670616d6f756e743d360c41b6044820152606401610533565b6000838152600a6020908152604080832033845290915290205460ff161561098c5760405162461bcd60e51b8152602060048201526008602482015267185c1c1c9bdd995960c21b6044820152606401610533565b6000838152600a602090815260408083203384528252808320805460ff19166001908117909155868452600b90925282208054919290916109ce908490611772565b90915550506000838152600b6020908152604091829020549151918252339185917f67e1828bee8aa442008e492aac52df6c528a83a89adc973b8aeef8544c95053d910160405180910390a36000838152600b6020526040902054600311610a98576000838152600960205260409020805460ff19166001179055610a538282611281565b816001600160a01b0316837f1a49076e0e8c733171c5360d78c9ae8e19fef5a0720b926e72f78b7cc37618cd83604051610a8f91815260200190565b60405180910390a35b610aa26001600655565b505050565b60003381610ab58286610b41565b905083811015610b155760405162461bcd60e51b815260206004820152602560248201527f45524332303a2064656372656173656420616c6c6f77616e63652062656c6f77604482015264207a65726f60d81b6064820152608401610533565b6104e18286868403610bf2565b6000336104bc818585610d88565b6060610b3c6007611340565b905090565b6001600160a01b03918216600090815260016020908152604080832093909416825291909152205490565b610b74610f2c565b6001600160a01b038116610bd95760405162461bcd60e51b815260206004820152602660248201527f4f776e61626c653a206e6577206f776e657220697320746865207a65726f206160448201526564647265737360d01b6064820152608401610533565b610be281611019565b50565b60006104c260078361134d565b6001600160a01b038316610c545760405162461bcd60e51b8152602060048201526024808201527f45524332303a20617070726f76652066726f6d20746865207a65726f206164646044820152637265737360e01b6064820152608401610533565b6001600160a01b038216610cb55760405162461bcd60e51b815260206004820152602260248201527f45524332303a20617070726f766520746f20746865207a65726f206164647265604482015261737360f01b6064820152608401610533565b6001600160a01b0383811660008181526001602090815260408083209487168084529482529182902085905590518481527f8c5be1e5ebec7d5bd14f71427d1e84f3dd0314c0f7b2291e5b200ac8c7c3b92591016105f2565b6000610d1a8484610b41565b90506000198114610d825781811015610d755760405162461bcd60e51b815260206004820152601d60248201527f45524332303a20696e73756666696369656e7420616c6c6f77616e63650000006044820152606401610533565b610d828484848403610bf2565b50505050565b6001600160a01b038316610dec5760405162461bcd60e51b815260206004820152602560248201527f45524332303a207472616e736665722066726f6d20746865207a65726f206164604482015264647265737360d81b6064820152608401610533565b6001600160a01b038216610e4e5760405162461bcd60e51b815260206004820152602360248201527f45524332303a207472616e7366657220746f20746865207a65726f206164647260448201526265737360e81b6064820152608401610533565b6001600160a01b03831660009081526020819052604090205481811015610ec65760405162461bcd60e51b815260206004820152602660248201527f45524332303a207472616e7366657220616d6f756e7420657863656564732062604482015265616c616e636560d01b6064820152608401610533565b6001600160a01b03848116600081815260208181526040808320878703905593871680835291849020805487019055925185815290927fddf252ad1be2c89b69c2b068fc378daa952ba7f163c4a11628f55a4df523b3ef910160405180910390a3610d82565b6005546001600160a01b036101009091041633146106315760405162461bcd60e51b815260206004820181905260248201527f4f776e61626c653a2063616c6c6572206973206e6f7420746865206f776e65726044820152606401610533565b610f9461136f565b6005805460ff191690557f5db9ee0a495bf2e6ff9c91a7834c1ba4fdd244a5e8aa4e537bd38aeae4b073aa335b6040516001600160a01b03909116815260200160405180910390a1565b60006104c2825490565b6000610ffd836001600160a01b0384166113b8565b9392505050565b6000610ffd836001600160a01b0384166114ab565b600580546001600160a01b03838116610100818102610100600160a81b031985161790945560405193909204169182907f8be0079c531659141344cd1fd0a4f28419497f9722a3daafe3b4186f6b6457e090600090a35050565b61107b6111e2565b6005805460ff191660011790557f62e78cea01bee320cd4e420270b5ea74000d11b0c9f74754ebdbfc544b05a258610fc13390565b6001600160a01b0382166111105760405162461bcd60e51b815260206004820152602160248201527f45524332303a206275726e2066726f6d20746865207a65726f206164647265736044820152607360f81b6064820152608401610533565b6001600160a01b038216600090815260208190526040902054818110156111845760405162461bcd60e51b815260206004820152602260248201527f45524332303a206275726e20616d6f756e7420657863656564732062616c616e604482015261636560f01b6064820152608401610533565b6001600160a01b0383166000818152602081815260408083208686039055600280548790039055518581529192917fddf252ad1be2c89b69c2b068fc378daa952ba7f163c4a11628f55a4df523b3ef910160405180910390a3505050565b60055460ff16156106315760405162461bcd60e51b815260206004820152601060248201526f14185d5cd8589b194e881c185d5cd95960821b6044820152606401610533565b60026006540361127a5760405162461bcd60e51b815260206004820152601f60248201527f5265656e7472616e637947756172643a207265656e7472616e742063616c6c006044820152606401610533565b6002600655565b6001600160a01b0382166112d75760405162461bcd60e51b815260206004820152601f60248201527f45524332303a206d696e7420746f20746865207a65726f2061646472657373006044820152606401610533565b80600260008282546112e99190611772565b90915550506001600160a01b038216600081815260208181526040808320805486019055518481527fddf252ad1be2c89b69c2b068fc378daa952ba7f163c4a11628f55a4df523b3ef910160405180910390a35050565b60606000610ffd836114fa565b6001600160a01b03811660009081526001830160205260408120541515610ffd565b60055460ff166106315760405162461bcd60e51b815260206004820152601460248201527314185d5cd8589b194e881b9bdd081c185d5cd95960621b6044820152606401610533565b600081815260018301602052604081205480156114a15760006113dc600183611785565b85549091506000906113f090600190611785565b905081811461145557600086600001828154811061141057611410611798565b906000526020600020015490508087600001848154811061143357611433611798565b6000918252602080832090910192909255918252600188019052604090208390555b8554869080611466576114666117ae565b6001900381819060005260206000200160009055905585600101600086815260200190815260200160002060009055600193505050506104c2565b60009150506104c2565b60008181526001830160205260408120546114f2575081546001818101845560008481526020808220909301849055845484825282860190935260409020919091556104c2565b5060006104c2565b60608160000180548060200260200160405190810160405280929190818152602001828054801561154a57602002820191906000526020600020905b815481526020019060010190808311611536575b50505050509050919050565b600060208083528351808285015260005b8181101561158357858101830151858201604001528201611567565b506000604082860101526040601f19601f8301168501019250505092915050565b80356001600160a01b03811681146115bb57600080fd5b919050565b600080604083850312156115d357600080fd5b6115dc836115a4565b946020939093013593505050565b6000806000606084860312156115ff57600080fd5b611608846115a4565b9250611616602085016115a4565b9150604084013590509250925092565b6000806040838503121561163957600080fd5b82359150611649602084016115a4565b90509250929050565b60008060006060848603121561166757600080fd5b83359250611616602085016115a4565b60006020828403121561168957600080fd5b610ffd826115a4565b6000602082840312156116a457600080fd5b5035919050565b6020808252825182820181905260009190848201906040850190845b818110156116ec5783516001600160a01b0316835292840192918401916001016116c7565b50909695505050505050565b6000806040838503121561170b57600080fd5b611714836115a4565b9150611649602084016115a4565b600181811c9082168061173657607f821691505b60208210810361175657634e487b7160e01b600052602260045260246000fd5b50919050565b634e487b7160e01b600052601160045260246000fd5b808201808211156104c2576104c261175c565b818103818111156104c2576104c261175c565b634e487b7160e01b600052603260045260246000fd5b634e487b7160e01b600052603160045260246000fdfea26469706673582212207d7fbf69121adb415b893e9bdbbfd0f8ee467f473b41fa5742ef5ce178cece4764736f6c63430008140033",
  "linkReferences": {},
  "deployedLinkReferences": {}
}